{"abi":[{"type":"constructor","inputs":[{"name":"_reviewPoolImplementation","type":"address","internalType":"address"},{"name":"_reviewerSBTAddress","type":"address","internalType":"address"}],"stateMutability":"nonpayable"},{"type":"function","name":"REVIEWER_SBT_ADDRESS","inputs":[],"outputs":[{"name":"","type":"address","internalType":"address"}],"stateMutability":"view"},{"type":"function","name":"addressToReviewPools","inputs":[{"name":"","type":"address","internalType":"address"},{"name":"","type":"uint256","internalType":"uint256"}],"outputs":[{"name":"","type":"uint256","internalType":"uint256"}],"stateMutability":"view"},{"type":"function","name":"createReviewPool","inputs":[{"name":"_tagTypesHash","type":"bytes32","internalType":"bytes32"},{"name":"_paperUri","type":"string","internalType":"string"},{"name":"_paperTitle","type":"string","internalType":"string"},{"name":"_requiredReviewerNumber","type":"uint256","internalType":"uint256"}],"outputs":[],"stateMutability":"payable"},{"type":"function","name":"getReviewPoolsByAddress","inputs":[{"name":"_address","type":"address","internalType":"address"}],"outputs":[{"name":"","type":"uint256[]","internalType":"uint256[]"}],"stateMutability":"view"},{"type":"function","name":"owner","inputs":[],"outputs":[{"name":"","type":"address","internalType":"address"}],"stateMutability":"view"},{"type":"function","name":"predictNextDeterministicAddress","inputs":[],"outputs":[{"name":"","type":"address","internalType":"address"}],"stateMutability":"view"},{"type":"function","name":"renounceOwnership","inputs":[],"outputs":[],"stateMutability":"nonpayable"},{"type":"function","name":"reviewPoolCount","inputs":[],"outputs":[{"name":"","type":"uint256","internalType":"uint256"}],"stateMutability":"view"},{"type":"function","name":"reviewPoolImplementation","inputs":[],"outputs":[{"name":"","type":"address","internalType":"address"}],"stateMutability":"view"},{"type":"function","name":"reviewPoolToAddress","inputs":[{"name":"","type":"uint256","internalType":"uint256"}],"outputs":[{"name":"","type":"address","internalType":"address"}],"stateMutability":"view"},{"type":"function","name":"transferOwnership","inputs":[{"name":"newOwner","type":"address","internalType":"address"}],"outputs":[],"stateMutability":"nonpayable"},{"type":"event","name":"OwnershipTransferred","inputs":[{"name":"previousOwner","type":"address","indexed":true,"internalType":"address"},{"name":"newOwner","type":"address","indexed":true,"internalType":"address"}],"anonymous":false},{"type":"event","name":"ReviewPoolCreated","inputs":[{"name":"reviewPoolId","type":"uint256","indexed":true,"internalType":"uint256"},{"name":"reviewPoolAddress","type":"address","indexed":true,"internalType":"address"}],"anonymous":false},{"type":"error","name":"ERC1167FailedCreateClone","inputs":[]},{"type":"error","name":"OwnableInvalidOwner","inputs":[{"name":"owner","type":"address","internalType":"address"}]},{"type":"error","name":"OwnableUnauthorizedAccount","inputs":[{"name":"account","type":"address","internalType":"address"}]}],"bytecode":{"object":"0x60c060405234801561001057600080fd5b50604051610a46380380610a4683398101604081905261002f916100e2565b338061005557604051631e4fbdf760e01b81526000600482015260240160405180910390fd5b61005e81610076565b506001600160a01b039182166080521660a052610115565b600080546001600160a01b038381166001600160a01b0319831681178455604051919092169283917f8be0079c531659141344cd1fd0a4f28419497f9722a3daafe3b4186f6b6457e09190a35050565b80516001600160a01b03811681146100dd57600080fd5b919050565b600080604083850312156100f557600080fd5b6100fe836100c6565b915061010c602084016100c6565b90509250929050565b60805160a0516108f861014e60003960008181610131015261035b01526000818160b3015281816102de015261031d01526108f86000f3fe60806040526004361061009c5760003560e01c80638da5cb5b116100645780638da5cb5b1461018e578063a9f92716146101ac578063b865b155146101c1578063d56ee774146101f7578063e04611761461020a578063f2fde38b1461022a57600080fd5b80630704257d146100a157806311dc00dc146100f25780635fb42e1b1461011f578063715018a6146101535780637206e6371461016a575b600080fd5b3480156100ad57600080fd5b506100d57f000000000000000000000000000000000000000000000000000000000000000081565b6040516001600160a01b0390911681526020015b60405180910390f35b3480156100fe57600080fd5b5061011261010d366004610649565b61024a565b6040516100e99190610664565b34801561012b57600080fd5b506100d57f000000000000000000000000000000000000000000000000000000000000000081565b34801561015f57600080fd5b506101686102b6565b005b34801561017657600080fd5b5061018060035481565b6040519081526020016100e9565b34801561019a57600080fd5b506000546001600160a01b03166100d5565b3480156101b857600080fd5b506100d56102ca565b3480156101cd57600080fd5b506100d56101dc3660046106a7565b6001602052600090815260409020546001600160a01b031681565b610168610205366004610765565b610309565b34801561021657600080fd5b506101806102253660046107df565b610469565b34801561023657600080fd5b50610168610245366004610649565b61049a565b6001600160a01b0381166000908152600260209081526040918290208054835181840281018401909452808452606093928301828280156102aa57602002820191906000526020600020905b815481526020019060010190808311610296575b50505050509050919050565b6102be6104dd565b6102c8600061050a565b565b600354600090610304906001600160a01b037f0000000000000000000000000000000000000000000000000000000000000000169061055a565b905090565b600354600090610343906001600160a01b037f000000000000000000000000000000000000000000000000000000000000000016906105bf565b9050806001600160a01b031663bb16a68c34848888887f00000000000000000000000000000000000000000000000000000000000000006040518763ffffffff1660e01b815260040161039a95949392919061084f565b6000604051808303818588803b1580156103b357600080fd5b505af11580156103c7573d6000803e3d6000fd5b505060038054600090815260016020818152604080842080546001600160a01b0319166001600160a01b038b16179055338452600282528320845481549384018255908452908320909101558154945090925090506104258361089b565b90915550506003546040516001600160a01b03831691907fa28026984f0a3f5f81e8232228f0b9d3f1c5f756d4c3618b5e82d4b6a15ed10f90600090a35050505050565b6002602052816000526040600020818154811061048557600080fd5b90600052602060002001600091509150505481565b6104a26104dd565b6001600160a01b0381166104d157604051631e4fbdf760e01b8152600060048201526024015b60405180910390fd5b6104da8161050a565b50565b6000546001600160a01b031633146102c85760405163118cdaa760e01b81523360048201526024016104c8565b600080546001600160a01b038381166001600160a01b0319831681178455604051919092169283917f8be0079c531659141344cd1fd0a4f28419497f9722a3daafe3b4186f6b6457e09190a35050565b6040513060388201526f5af43d82803e903d91602b57fd5bf3ff602482015260148101839052733d602d80600a3d3981f3363d3d373d3d3d363d738152605881018290526037600c820120607882015260556043909101206000905b90505b92915050565b6000763d602d80600a3d3981f3363d3d373d3d3d363d730000008360601b60e81c176000526e5af43d82803e903d91602b57fd5bf38360781b1760205281603760096000f590506001600160a01b0381166105b9576040516330be1a3d60e21b815260040160405180910390fd5b80356001600160a01b038116811461064457600080fd5b919050565b60006020828403121561065b57600080fd5b6105b68261062d565b602080825282518282018190526000918401906040840190835b8181101561069c57835183526020938401939092019160010161067e565b509095945050505050565b6000602082840312156106b957600080fd5b5035919050565b634e487b7160e01b600052604160045260246000fd5b600082601f8301126106e757600080fd5b813567ffffffffffffffff811115610701576107016106c0565b604051601f8201601f19908116603f0116810167ffffffffffffffff81118282101715610730576107306106c0565b60405281815283820160200185101561074857600080fd5b816020850160208301376000918101602001919091529392505050565b6000806000806080858703121561077b57600080fd5b84359350602085013567ffffffffffffffff81111561079957600080fd5b6107a5878288016106d6565b935050604085013567ffffffffffffffff8111156107c257600080fd5b6107ce878288016106d6565b949793965093946060013593505050565b600080604083850312156107f257600080fd5b6107fb8361062d565b946020939093013593505050565b6000815180845260005b8181101561082f57602081850181015186830182015201610813565b506000602082860101526020601f19601f83011685010191505092915050565b85815284602082015260a06040820152600061086e60a0830186610809565b82810360608401526108808186610809565b91505060018060a01b03831660808301529695505050505050565b6000600182016108bb57634e487b7160e01b600052601160045260246000fd5b506001019056fea2646970667358221220e9f64738278e6aaabd1ad988c638c559ce28c84f3cd3a293034b018a550f99dd64736f6c634300081a0033","linkReferences":{}},"methodIdentifiers":{"REVIEWER_SBT_ADDRESS()":"5fb42e1b","addressToReviewPools(address,uint256)":"e0461176","createReviewPool(bytes32,string,string,uint256)":"d56ee774","getReviewPoolsByAddress(address)":"11dc00dc","owner()":"8da5cb5b","predictNextDeterministicAddress()":"a9f92716","renounceOwnership()":"715018a6","reviewPoolCount()":"7206e637","reviewPoolImplementation()":"0704257d","reviewPoolToAddress(uint256)":"b865b155","transferOwnership(address)":"f2fde38b"},"id":36}