{"abi":[{"type":"constructor","inputs":[],"stateMutability":"nonpayable"},{"type":"function","name":"addTagType","inputs":[{"name":"tagType","type":"string","internalType":"string"}],"outputs":[],"stateMutability":"nonpayable"},{"type":"function","name":"approve","inputs":[{"name":"to","type":"address","internalType":"address"},{"name":"tokenId","type":"uint256","internalType":"uint256"}],"outputs":[],"stateMutability":"nonpayable"},{"type":"function","name":"balanceOf","inputs":[{"name":"owner","type":"address","internalType":"address"}],"outputs":[{"name":"","type":"uint256","internalType":"uint256"}],"stateMutability":"view"},{"type":"function","name":"burn","inputs":[{"name":"_tokenId","type":"uint256","internalType":"uint256"}],"outputs":[],"stateMutability":"nonpayable"},{"type":"function","name":"burnAuth","inputs":[{"name":"_tokenId","type":"uint256","internalType":"uint256"}],"outputs":[{"name":"","type":"uint8","internalType":"enum IERC5484.BurnAuth"}],"stateMutability":"view"},{"type":"function","name":"deleteTagType","inputs":[{"name":"index","type":"uint256","internalType":"uint256"}],"outputs":[],"stateMutability":"nonpayable"},{"type":"function","name":"getAllTagTypes","inputs":[],"outputs":[{"name":"","type":"string[]","internalType":"string[]"}],"stateMutability":"view"},{"type":"function","name":"getApproved","inputs":[{"name":"tokenId","type":"uint256","internalType":"uint256"}],"outputs":[{"name":"","type":"address","internalType":"address"}],"stateMutability":"view"},{"type":"function","name":"getTagTypeHash","inputs":[{"name":"_tokenId","type":"uint256","internalType":"uint256"}],"outputs":[{"name":"","type":"bytes32","internalType":"bytes32"}],"stateMutability":"view"},{"type":"function","name":"isApprovedForAll","inputs":[{"name":"owner","type":"address","internalType":"address"},{"name":"operator","type":"address","internalType":"address"}],"outputs":[{"name":"","type":"bool","internalType":"bool"}],"stateMutability":"view"},{"type":"function","name":"mint","inputs":[{"name":"to","type":"address","internalType":"address"},{"name":"tagType","type":"string","internalType":"string"}],"outputs":[],"stateMutability":"nonpayable"},{"type":"function","name":"name","inputs":[],"outputs":[{"name":"","type":"string","internalType":"string"}],"stateMutability":"view"},{"type":"function","name":"owner","inputs":[],"outputs":[{"name":"","type":"address","internalType":"address"}],"stateMutability":"view"},{"type":"function","name":"ownerOf","inputs":[{"name":"tokenId","type":"uint256","internalType":"uint256"}],"outputs":[{"name":"","type":"address","internalType":"address"}],"stateMutability":"view"},{"type":"function","name":"renounceOwnership","inputs":[],"outputs":[],"stateMutability":"nonpayable"},{"type":"function","name":"safeTransferFrom","inputs":[{"name":"from","type":"address","internalType":"address"},{"name":"to","type":"address","internalType":"address"},{"name":"tokenId","type":"uint256","internalType":"uint256"}],"outputs":[],"stateMutability":"nonpayable"},{"type":"function","name":"safeTransferFrom","inputs":[{"name":"from","type":"address","internalType":"address"},{"name":"to","type":"address","internalType":"address"},{"name":"tokenId","type":"uint256","internalType":"uint256"},{"name":"data","type":"bytes","internalType":"bytes"}],"outputs":[],"stateMutability":"nonpayable"},{"type":"function","name":"setApprovalForAll","inputs":[{"name":"operator","type":"address","internalType":"address"},{"name":"approved","type":"bool","internalType":"bool"}],"outputs":[],"stateMutability":"nonpayable"},{"type":"function","name":"setBurnAuthorization","inputs":[{"name":"_burnAuthorization","type":"uint8","internalType":"enum IERC5484.BurnAuth"}],"outputs":[],"stateMutability":"nonpayable"},{"type":"function","name":"supportsInterface","inputs":[{"name":"interfaceId","type":"bytes4","internalType":"bytes4"}],"outputs":[{"name":"","type":"bool","internalType":"bool"}],"stateMutability":"view"},{"type":"function","name":"symbol","inputs":[],"outputs":[{"name":"","type":"string","internalType":"string"}],"stateMutability":"view"},{"type":"function","name":"tagTypes","inputs":[{"name":"","type":"uint256","internalType":"uint256"}],"outputs":[{"name":"","type":"string","internalType":"string"}],"stateMutability":"view"},{"type":"function","name":"tagTypesHash","inputs":[{"name":"","type":"string","internalType":"string"}],"outputs":[{"name":"","type":"bytes32","internalType":"bytes32"}],"stateMutability":"view"},{"type":"function","name":"tokenIdToTagTypeHash","inputs":[{"name":"","type":"uint256","internalType":"uint256"}],"outputs":[{"name":"","type":"bytes32","internalType":"bytes32"}],"stateMutability":"view"},{"type":"function","name":"tokenURI","inputs":[{"name":"tokenId","type":"uint256","internalType":"uint256"}],"outputs":[{"name":"","type":"string","internalType":"string"}],"stateMutability":"view"},{"type":"function","name":"transferFrom","inputs":[{"name":"","type":"address","internalType":"address"},{"name":"","type":"address","internalType":"address"},{"name":"","type":"uint256","internalType":"uint256"}],"outputs":[],"stateMutability":"nonpayable"},{"type":"function","name":"transferOwnership","inputs":[{"name":"newOwner","type":"address","internalType":"address"}],"outputs":[],"stateMutability":"nonpayable"},{"type":"event","name":"Approval","inputs":[{"name":"owner","type":"address","indexed":true,"internalType":"address"},{"name":"approved","type":"address","indexed":true,"internalType":"address"},{"name":"tokenId","type":"uint256","indexed":true,"internalType":"uint256"}],"anonymous":false},{"type":"event","name":"ApprovalForAll","inputs":[{"name":"owner","type":"address","indexed":true,"internalType":"address"},{"name":"operator","type":"address","indexed":true,"internalType":"address"},{"name":"approved","type":"bool","indexed":false,"internalType":"bool"}],"anonymous":false},{"type":"event","name":"Burned","inputs":[{"name":"tokenId","type":"uint256","indexed":false,"internalType":"uint256"}],"anonymous":false},{"type":"event","name":"Issued","inputs":[{"name":"from","type":"address","indexed":true,"internalType":"address"},{"name":"to","type":"address","indexed":true,"internalType":"address"},{"name":"tokenId","type":"uint256","indexed":true,"internalType":"uint256"},{"name":"burnAuth","type":"uint8","indexed":false,"internalType":"enum IERC5484.BurnAuth"}],"anonymous":false},{"type":"event","name":"OwnershipTransferred","inputs":[{"name":"previousOwner","type":"address","indexed":true,"internalType":"address"},{"name":"newOwner","type":"address","indexed":true,"internalType":"address"}],"anonymous":false},{"type":"event","name":"TagTypeAdded","inputs":[{"name":"tagType","type":"string","indexed":false,"internalType":"string"}],"anonymous":false},{"type":"event","name":"TagTypeDeleted","inputs":[{"name":"index","type":"uint256","indexed":false,"internalType":"uint256"}],"anonymous":false},{"type":"event","name":"Transfer","inputs":[{"name":"from","type":"address","indexed":true,"internalType":"address"},{"name":"to","type":"address","indexed":true,"internalType":"address"},{"name":"tokenId","type":"uint256","indexed":true,"internalType":"uint256"}],"anonymous":false},{"type":"error","name":"ERC721IncorrectOwner","inputs":[{"name":"sender","type":"address","internalType":"address"},{"name":"tokenId","type":"uint256","internalType":"uint256"},{"name":"owner","type":"address","internalType":"address"}]},{"type":"error","name":"ERC721InsufficientApproval","inputs":[{"name":"operator","type":"address","internalType":"address"},{"name":"tokenId","type":"uint256","internalType":"uint256"}]},{"type":"error","name":"ERC721InvalidApprover","inputs":[{"name":"approver","type":"address","internalType":"address"}]},{"type":"error","name":"ERC721InvalidOperator","inputs":[{"name":"operator","type":"address","internalType":"address"}]},{"type":"error","name":"ERC721InvalidOwner","inputs":[{"name":"owner","type":"address","internalType":"address"}]},{"type":"error","name":"ERC721InvalidReceiver","inputs":[{"name":"receiver","type":"address","internalType":"address"}]},{"type":"error","name":"ERC721InvalidSender","inputs":[{"name":"sender","type":"address","internalType":"address"}]},{"type":"error","name":"ERC721NonexistentToken","inputs":[{"name":"tokenId","type":"uint256","internalType":"uint256"}]},{"type":"error","name":"OwnableInvalidOwner","inputs":[{"name":"owner","type":"address","internalType":"address"}]},{"type":"error","name":"OwnableUnauthorizedAccount","inputs":[{"name":"account","type":"address","internalType":"address"}]},{"type":"error","name":"ReviewerSBT__NonExistentToken","inputs":[]},{"type":"error","name":"ReviewerSBT__NonTransferableToken","inputs":[]}],"bytecode":{"object":"0x608060405234801561001057600080fd5b50336040518060400160405280600b81526020016a14995d9a595dd95c94d09560aa1b815250604051806040016040528060048152602001631494d09560e21b815250816000908161006291906101ad565b50600161006f82826101ad565b5050506001600160a01b0381166100a057604051631e4fbdf760e01b81526000600482015260240160405180910390fd5b6100a9816100bc565b50600b805460ff1916600217905561026b565b600680546001600160a01b038381166001600160a01b0319831681179093556040519116919082907f8be0079c531659141344cd1fd0a4f28419497f9722a3daafe3b4186f6b6457e090600090a35050565b634e487b7160e01b600052604160045260246000fd5b600181811c9082168061013857607f821691505b60208210810361015857634e487b7160e01b600052602260045260246000fd5b50919050565b601f8211156101a857806000526020600020601f840160051c810160208510156101855750805b601f840160051c820191505b818110156101a55760008155600101610191565b50505b505050565b81516001600160401b038111156101c6576101c661010e565b6101da816101d48454610124565b8461015e565b6020601f82116001811461020e57600083156101f65750848201515b600019600385901b1c1916600184901b1784556101a5565b600084815260208120601f198516915b8281101561023e578785015182556020948501946001909201910161021e565b508482101561025c5786840151600019600387901b60f8161c191681555b50505050600190811b01905550565b611cdf8061027a6000396000f3fe608060405234801561001057600080fd5b50600436106101a95760003560e01c806370a08231116100f9578063a22cb46511610097578063d0def52111610071578063d0def521146103cb578063e985e9c5146103de578063efdeceb4146103f1578063f2fde38b1461040457600080fd5b8063a22cb46514610392578063b88d4fde146103a5578063c87b56dd146103b857600080fd5b8063832c0b15116100d3578063832c0b15146103465780638da5cb5b1461036657806395d89b41146103775780639e0c321c1461037f57600080fd5b806370a0823114610300578063715018a61461031357806371b4286b1461031b57600080fd5b806323497d511161016657806342966c681161014057806342966c681461029957806359f99a4c146102ac5780635c5dea30146102da5780636352211e146102ed57600080fd5b806323497d511461025e57806323b872dd1461027357806342842e0e1461028657600080fd5b806301ffc9a7146101ae5780630489b56f146101d657806306fdde03146101f6578063081812fc1461020b578063095ea7b31461023657806316a9648c1461024b575b600080fd5b6101c16101bc3660046114f0565b610417565b60405190151581526020015b60405180910390f35b6101e96101e436600461150d565b610442565b6040516101cd919061153c565b6101fe610482565b6040516101cd91906115b4565b61021e61021936600461150d565b610514565b6040516001600160a01b0390911681526020016101cd565b6102496102443660046115e3565b61053d565b005b6102496102593660046116bd565b61054c565b610266610597565b6040516101cd91906116f2565b610249610281366004611757565b610670565b610249610294366004611757565b610689565b6102496102a736600461150d565b6106a9565b6102cc6102ba36600461150d565b6000908152600a602052604090205490565b6040519081526020016101cd565b6101fe6102e836600461150d565b610843565b61021e6102fb36600461150d565b6108ef565b6102cc61030e366004611794565b6108fa565b610249610947565b6102cc6103293660046116bd565b805160208183018101805160098252928201919093012091525481565b6102cc61035436600461150d565b600a6020526000908152604090205481565b6006546001600160a01b031661021e565b6101fe61095b565b61024961038d36600461150d565b61096a565b6102496103a03660046117af565b6109ab565b6102496103b33660046117eb565b6109b6565b6101fe6103c636600461150d565b6109d3565b6102496103d9366004611867565b610a48565b6101c16103ec3660046118b5565b610af4565b6102496103ff3660046118e8565b610b22565b610249610412366004611794565b610b51565b60006001600160e01b03198216630489b56f60e01b148061043c575061043c82610b8f565b92915050565b6000818152600260205260408120546001600160a01b03166104775760405163305f81b160e01b815260040160405180910390fd5b5050600b5460ff1690565b60606000805461049190611909565b80601f01602080910402602001604051908101604052809291908181526020018280546104bd90611909565b801561050a5780601f106104df5761010080835404028352916020019161050a565b820191906000526020600020905b8154815290600101906020018083116104ed57829003601f168201915b5050505050905090565b600061051f82610bdf565b506000828152600460205260409020546001600160a01b031661043c565b610548828233610c18565b5050565b610554610c25565b61055d81610c52565b7f4bda1bd7a4c7664f92f1c455ed6d800af93dee84d6cba49a41cc53829f8d69c58160405161058c91906115b4565b60405180910390a150565b60606008805480602002602001604051908101604052809291908181526020016000905b828210156106675783829060005260206000200180546105da90611909565b80601f016020809104026020016040519081016040528092919081815260200182805461060690611909565b80156106535780601f1061062857610100808354040283529160200191610653565b820191906000526020600020905b81548152906001019060200180831161063657829003601f168201915b5050505050815260200190600101906105bb565b50505050905090565b604051630634778160e11b815260040160405180910390fd5b6106a4838383604051806020016040528060008152506109b6565b505050565b806003600b5460ff1660038111156106c3576106c3611526565b036106e157604051630634778160e11b815260040160405180910390fd5b6001600b5460ff1660038111156106fa576106fa611526565b148015610721575061070b816108ef565b6001600160a01b0316336001600160a01b031614155b1561073f57604051630634778160e11b815260040160405180910390fd5b6000600b5460ff16600381111561075857610758611526565b14801561077057506006546001600160a01b03163314155b1561078e57604051630634778160e11b815260040160405180910390fd5b6002600b5460ff1660038111156107a7576107a7611526565b1480156107bf57506006546001600160a01b03163314155b80156107e557506107cf816108ef565b6001600160a01b0316336001600160a01b031614155b1561080357604051630634778160e11b815260040160405180910390fd5b61080c82610cd9565b6040518281527fd83c63197e8e676d80ab0122beba9a9d20f3828839e9a1d6fe81d242e9cd7e6e9060200160405180910390a15050565b6008818154811061085357600080fd5b90600052602060002001600091509050805461086e90611909565b80601f016020809104026020016040519081016040528092919081815260200182805461089a90611909565b80156108e75780601f106108bc576101008083540402835291602001916108e7565b820191906000526020600020905b8154815290600101906020018083116108ca57829003601f168201915b505050505081565b600061043c82610bdf565b60006001600160a01b03821661092b576040516322718ad960e21b8152600060048201526024015b60405180910390fd5b506001600160a01b031660009081526003602052604090205490565b61094f610c25565b6109596000610d14565b565b60606001805461049190611909565b610972610c25565b61097b81610d66565b6040518181527f2c9ddea7f4345968678fef7816d73b19b2062c9718897c5272284fd11801ff0d9060200161058c565b610548338383610e2b565b6109c1848484610670565b6109cd84848484610eca565b50505050565b60606109de82610bdf565b5060006109f660408051602081019091526000815290565b90506000815111610a165760405180602001604052806000815250610a41565b80610a2084610ff3565b604051602001610a31929190611943565b6040516020818303038152906040525b9392505050565b600981604051610a589190611972565b908152602001604051809103902054600a6000600754815260200190815260200160002081905550610a8c82600754611086565b60078054906000610a9c836119a4565b9091555050600754600b546040516001600160a01b0385169133917f135ffb3383e06280e062ac5095bbf8faa98517161e596a2536bd98a9a8b64a8891610ae89160ff9091169061153c565b60405180910390a45050565b6001600160a01b03918216600090815260056020908152604080832093909416825291909152205460ff1690565b610b2a610c25565b600b805482919060ff19166001836003811115610b4957610b49611526565b021790555050565b610b59610c25565b6001600160a01b038116610b8357604051631e4fbdf760e01b815260006004820152602401610922565b610b8c81610d14565b50565b60006001600160e01b031982166380ac58cd60e01b1480610bc057506001600160e01b03198216635b5e139f60e01b145b8061043c57506301ffc9a760e01b6001600160e01b031983161461043c565b6000818152600260205260408120546001600160a01b03168061043c57604051637e27328960e01b815260048101849052602401610922565b6106a483838360016110eb565b6006546001600160a01b031633146109595760405163118cdaa760e01b8152336004820152602401610922565b600880546001810182556000919091527ff3f7a9fe364faab93b216da50a3214154f22a0a2b415b23a84c8169e8b636ee301610c8e8282611a04565b5080604051602001610ca09190611972565b60405160208183030381529060405280519060200120600982604051610cc69190611972565b9081526040519081900360200190205550565b6000610ce860008360006111f1565b90506001600160a01b03811661054857604051637e27328960e01b815260048101839052602401610922565b600680546001600160a01b038381166001600160a01b0319831681179093556040519116919082907f8be0079c531659141344cd1fd0a4f28419497f9722a3daafe3b4186f6b6457e090600090a35050565b600960088281548110610d7b57610d7b611ac6565b90600052602060002001604051610d929190611adc565b9081526040519081900360200190206000905560088054610db590600190611b51565b81548110610dc557610dc5611ac6565b9060005260206000200160088281548110610de257610de2611ac6565b906000526020600020019081610df89190611b64565b506008805480610e0a57610e0a611c39565b600190038181906000526020600020016000610e26919061148c565b905550565b6001600160a01b038216610e5d57604051630b61174360e31b81526001600160a01b0383166004820152602401610922565b6001600160a01b03838116600081815260056020908152604080832094871680845294825291829020805460ff191686151590811790915591519182527f17307eab39ab6107e8899845ad3d59bd9653f200f220920489ca2b5937696c31910160405180910390a3505050565b6001600160a01b0383163b156109cd57604051630a85bd0160e11b81526001600160a01b0384169063150b7a0290610f0c903390889087908790600401611c4f565b6020604051808303816000875af1925050508015610f47575060408051601f3d908101601f19168201909252610f4491810190611c8c565b60015b610fb0573d808015610f75576040519150601f19603f3d011682016040523d82523d6000602084013e610f7a565b606091505b508051600003610fa857604051633250574960e11b81526001600160a01b0385166004820152602401610922565b805181602001fd5b6001600160e01b03198116630a85bd0160e11b14610fec57604051633250574960e11b81526001600160a01b0385166004820152602401610922565b5050505050565b60606000611000836112ea565b600101905060008167ffffffffffffffff8111156110205761102061160d565b6040519080825280601f01601f19166020018201604052801561104a576020820181803683370190505b5090508181016020015b600019016f181899199a1a9b1b9c1cb0b131b232b360811b600a86061a8153600a850494508461105457509392505050565b6001600160a01b0382166110b057604051633250574960e11b815260006004820152602401610922565b60006110be838360006111f1565b90506001600160a01b038116156106a4576040516339e3563760e11b815260006004820152602401610922565b80806110ff57506001600160a01b03821615155b156111c157600061110f84610bdf565b90506001600160a01b0383161580159061113b5750826001600160a01b0316816001600160a01b031614155b801561114e575061114c8184610af4565b155b156111775760405163a9fbf51f60e01b81526001600160a01b0384166004820152602401610922565b81156111bf5783856001600160a01b0316826001600160a01b03167f8c5be1e5ebec7d5bd14f71427d1e84f3dd0314c0f7b2291e5b200ac8c7c3b92560405160405180910390a45b505b5050600090815260046020526040902080546001600160a01b0319166001600160a01b0392909216919091179055565b6000828152600260205260408120546001600160a01b039081169083161561121e5761121e8184866113c2565b6001600160a01b0381161561125c5761123b6000856000806110eb565b6001600160a01b038116600090815260036020526040902080546000190190555b6001600160a01b0385161561128b576001600160a01b0385166000908152600360205260409020805460010190555b60008481526002602052604080822080546001600160a01b0319166001600160a01b0389811691821790925591518793918516917fddf252ad1be2c89b69c2b068fc378daa952ba7f163c4a11628f55a4df523b3ef91a4949350505050565b60008072184f03e93ff9f4daa797ed6e38ed64bf6a1f0160401b83106113295772184f03e93ff9f4daa797ed6e38ed64bf6a1f0160401b830492506040015b6d04ee2d6d415b85acef81000000008310611355576d04ee2d6d415b85acef8100000000830492506020015b662386f26fc10000831061137357662386f26fc10000830492506010015b6305f5e100831061138b576305f5e100830492506008015b612710831061139f57612710830492506004015b606483106113b1576064830492506002015b600a831061043c5760010192915050565b6113cd838383611426565b6106a4576001600160a01b0383166113fb57604051637e27328960e01b815260048101829052602401610922565b60405163177e802f60e01b81526001600160a01b038316600482015260248101829052604401610922565b60006001600160a01b038316158015906114845750826001600160a01b0316846001600160a01b0316148061146057506114608484610af4565b8061148457506000828152600460205260409020546001600160a01b038481169116145b949350505050565b50805461149890611909565b6000825580601f106114a8575050565b601f016020900490600052602060002090810190610b8c91905b808211156114d657600081556001016114c2565b5090565b6001600160e01b031981168114610b8c57600080fd5b60006020828403121561150257600080fd5b8135610a41816114da565b60006020828403121561151f57600080fd5b5035919050565b634e487b7160e01b600052602160045260246000fd5b602081016004831061155e57634e487b7160e01b600052602160045260246000fd5b91905290565b60005b8381101561157f578181015183820152602001611567565b50506000910152565b600081518084526115a0816020860160208601611564565b601f01601f19169290920160200192915050565b602081526000610a416020830184611588565b80356001600160a01b03811681146115de57600080fd5b919050565b600080604083850312156115f657600080fd5b6115ff836115c7565b946020939093013593505050565b634e487b7160e01b600052604160045260246000fd5b60008067ffffffffffffffff84111561163e5761163e61160d565b50604051601f19601f85018116603f0116810181811067ffffffffffffffff8211171561166d5761166d61160d565b60405283815290508082840185101561168557600080fd5b83836020830137600060208583010152509392505050565b600082601f8301126116ae57600080fd5b610a4183833560208501611623565b6000602082840312156116cf57600080fd5b813567ffffffffffffffff8111156116e657600080fd5b6114848482850161169d565b6000602082016020835280845180835260408501915060408160051b86010192506020860160005b8281101561174b57603f19878603018452611736858351611588565b9450602093840193919091019060010161171a565b50929695505050505050565b60008060006060848603121561176c57600080fd5b611775846115c7565b9250611783602085016115c7565b929592945050506040919091013590565b6000602082840312156117a657600080fd5b610a41826115c7565b600080604083850312156117c257600080fd5b6117cb836115c7565b9150602083013580151581146117e057600080fd5b809150509250929050565b6000806000806080858703121561180157600080fd5b61180a856115c7565b9350611818602086016115c7565b925060408501359150606085013567ffffffffffffffff81111561183b57600080fd5b8501601f8101871361184c57600080fd5b61185b87823560208401611623565b91505092959194509250565b6000806040838503121561187a57600080fd5b611883836115c7565b9150602083013567ffffffffffffffff81111561189f57600080fd5b6118ab8582860161169d565b9150509250929050565b600080604083850312156118c857600080fd5b6118d1836115c7565b91506118df602084016115c7565b90509250929050565b6000602082840312156118fa57600080fd5b813560048110610a4157600080fd5b600181811c9082168061191d57607f821691505b60208210810361193d57634e487b7160e01b600052602260045260246000fd5b50919050565b60008351611955818460208801611564565b835190830190611969818360208801611564565b01949350505050565b60008251611984818460208701611564565b9190910192915050565b634e487b7160e01b600052601160045260246000fd5b6000600182016119b6576119b661198e565b5060010190565b601f8211156106a457806000526020600020601f840160051c810160208510156119e45750805b601f840160051c820191505b81811015610fec57600081556001016119f0565b815167ffffffffffffffff811115611a1e57611a1e61160d565b611a3281611a2c8454611909565b846119bd565b6020601f821160018114611a695760008315611a4e5750848201515b600184901b600019600386901b1c198216175b855550610fec565b600084815260208120601f198516915b82811015611a995787850151825560209485019460019092019101611a79565b5084821015611ab75786840151600019600387901b60f8161c191681555b50505050600190811b01905550565b634e487b7160e01b600052603260045260246000fd5b6000808354611aea81611909565b600182168015611b015760018114611b1657611b46565b60ff1983168652811515820286019350611b46565b86600052602060002060005b83811015611b3e57815488820152600190910190602001611b22565b505081860193505b509195945050505050565b8181038181111561043c5761043c61198e565b818103611b6f575050565b611b798254611909565b67ffffffffffffffff811115611b9157611b9161160d565b611b9f81611a2c8454611909565b6000601f821160018114611bd15760008315611a4e575081850154600184901b600019600386901b1c19821617611a61565b600085815260209020601f19841690600086815260209020845b83811015611c0b5782860154825560019586019590910190602001611beb565b5085831015611c295781850154600019600388901b60f8161c191681555b5050505050600190811b01905550565b634e487b7160e01b600052603160045260246000fd5b6001600160a01b0385811682528416602082015260408101839052608060608201819052600090611c8290830184611588565b9695505050505050565b600060208284031215611c9e57600080fd5b8151610a41816114da56fea2646970667358221220e85f62d3d624de4ebe7f7ed66a4708f04851cde4b896f6cb7c7bd9ac0077604364736f6c634300081a0033","linkReferences":{}},"methodIdentifiers":{"addTagType(string)":"16a9648c","approve(address,uint256)":"095ea7b3","balanceOf(address)":"70a08231","burn(uint256)":"42966c68","burnAuth(uint256)":"0489b56f","deleteTagType(uint256)":"9e0c321c","getAllTagTypes()":"23497d51","getApproved(uint256)":"081812fc","getTagTypeHash(uint256)":"59f99a4c","isApprovedForAll(address,address)":"e985e9c5","mint(address,string)":"d0def521","name()":"06fdde03","owner()":"8da5cb5b","ownerOf(uint256)":"6352211e","renounceOwnership()":"715018a6","safeTransferFrom(address,address,uint256)":"42842e0e","safeTransferFrom(address,address,uint256,bytes)":"b88d4fde","setApprovalForAll(address,bool)":"a22cb465","setBurnAuthorization(uint8)":"efdeceb4","supportsInterface(bytes4)":"01ffc9a7","symbol()":"95d89b41","tagTypes(uint256)":"5c5dea30","tagTypesHash(string)":"71b4286b","tokenIdToTagTypeHash(uint256)":"832c0b15","tokenURI(uint256)":"c87b56dd","transferFrom(address,address,uint256)":"23b872dd","transferOwnership(address)":"f2fde38b"},"id":37}