{"abi":[{"type":"constructor","inputs":[],"stateMutability":"nonpayable"},{"type":"receive","stateMutability":"payable"},{"type":"function","name":"addReviewer","inputs":[{"name":"_tokenId","type":"uint256","internalType":"uint256"}],"outputs":[],"stateMutability":"nonpayable"},{"type":"function","name":"claimReviewReward","inputs":[{"name":"_review","type":"string","internalType":"string"}],"outputs":[],"stateMutability":"nonpayable"},{"type":"function","name":"getAllReviews","inputs":[],"outputs":[{"name":"","type":"string[]","internalType":"string[]"}],"stateMutability":"view"},{"type":"function","name":"getPoolIsFull","inputs":[],"outputs":[{"name":"","type":"bool","internalType":"bool"}],"stateMutability":"view"},{"type":"function","name":"getReview","inputs":[{"name":"_reviewer","type":"address","internalType":"address"}],"outputs":[{"name":"","type":"string","internalType":"string"}],"stateMutability":"view"},{"type":"function","name":"getReviewProgress","inputs":[],"outputs":[{"name":"","type":"uint256","internalType":"uint256"}],"stateMutability":"view"},{"type":"function","name":"hasReviewed","inputs":[{"name":"","type":"address","internalType":"address"}],"outputs":[{"name":"","type":"bool","internalType":"bool"}],"stateMutability":"view"},{"type":"function","name":"initialize","inputs":[{"name":"_reviewers","type":"uint256","internalType":"uint256"},{"name":"_tagTypesHash","type":"bytes32","internalType":"bytes32"},{"name":"_paperUri","type":"string","internalType":"string"},{"name":"_SBTAddress","type":"address","internalType":"address"}],"outputs":[],"stateMutability":"payable"},{"type":"function","name":"isReviewCompleted","inputs":[],"outputs":[{"name":"","type":"bool","internalType":"bool"}],"stateMutability":"view"},{"type":"function","name":"paperUri","inputs":[],"outputs":[{"name":"","type":"string","internalType":"string"}],"stateMutability":"view"},{"type":"function","name":"requiredReviewerNumber","inputs":[],"outputs":[{"name":"","type":"uint256","internalType":"uint256"}],"stateMutability":"view"},{"type":"function","name":"reviewersList","inputs":[{"name":"","type":"uint256","internalType":"uint256"}],"outputs":[{"name":"","type":"address","internalType":"address"}],"stateMutability":"view"},{"type":"function","name":"tagTypesHash","inputs":[],"outputs":[{"name":"","type":"bytes32","internalType":"bytes32"}],"stateMutability":"view"},{"type":"event","name":"Initialized","inputs":[{"name":"version","type":"uint64","indexed":false,"internalType":"uint64"}],"anonymous":false},{"type":"event","name":"ReviewRewardClaimed","inputs":[{"name":"reviewer","type":"address","indexed":true,"internalType":"address"},{"name":"amount","type":"uint256","indexed":false,"internalType":"uint256"}],"anonymous":false},{"type":"event","name":"ReviewerAdded","inputs":[{"name":"reviewer","type":"address","indexed":true,"internalType":"address"}],"anonymous":false},{"type":"error","name":"InvalidInitialization","inputs":[]},{"type":"error","name":"NotInitializing","inputs":[]},{"type":"error","name":"ReviewPool__EmptyPaperUri","inputs":[]},{"type":"error","name":"ReviewPool__Full","inputs":[]},{"type":"error","name":"ReviewPool__InvalidPayment","inputs":[]},{"type":"error","name":"ReviewPool__InvalidReviewer","inputs":[]},{"type":"error","name":"ReviewPool__InvalidReviewers","inputs":[]},{"type":"error","name":"ReviewPool__ReviewClaimFailed","inputs":[]}],"bytecode":{"object":"0x6080604052348015600f57600080fd5b506016601a565b60ca565b7ff0c57e16840df040f15088dc2f81fe391c3923bec73e23a9662efc9c229c6a00805468010000000000000000900460ff161560695760405163f92ee8a960e01b815260040160405180910390fd5b80546001600160401b039081161460c75780546001600160401b0319166001600160401b0390811782556040519081527fc7f505b2f371ae2175ee4913f4499e1f2633a7b5936321eed1cdaeb6115181d29060200160405180910390a15b50565b610e73806100d96000396000f3fe6080604052600436106100c65760003560e01c80634f98633a1161007f578063b3d6313711610059578063b3d6313714610214578063b698a3761461022a578063def5198b14610250578063f5c6cc291461026a57600080fd5b80634f98633a146101be578063694a34bb146101d4578063758171ab146101f457600080fd5b806302a5d5f0146100e95780630ba11143146101265780630c107357146101455780634270a11c1461016757806345a7b01c1461017c5780634d70d38a1461019e57600080fd5b366100e45760405163af59d58760e01b815260040160405180910390fd5b600080fd5b3480156100f557600080fd5b50610109610104366004610a08565b61029a565b6040516001600160a01b0390911681526020015b60405180910390f35b34801561013257600080fd5b506001545b60405190815260200161011d565b34801561015157600080fd5b5061015a6102c4565b60405161011d9190610a67565b61017a610175366004610b3e565b610352565b005b34801561018857600080fd5b506101916104f7565b60405161011d9190610ba1565b3480156101aa57600080fd5b5061017a6101b9366004610a08565b6105d0565b3480156101ca57600080fd5b5061013760005481565b3480156101e057600080fd5b5061015a6101ef366004610c06565b610797565b34801561020057600080fd5b5061017a61020f366004610c23565b610843565b34801561022057600080fd5b5061013760025481565b34801561023657600080fd5b5060005460045410155b604051901515815260200161011d565b34801561025c57600080fd5b506000546001541015610240565b34801561027657600080fd5b50610240610285366004610c06565b60086020526000908152604090205460ff1681565b600481815481106102aa57600080fd5b6000918252602090912001546001600160a01b0316905081565b600380546102d190610c60565b80601f01602080910402602001604051908101604052809291908181526020018280546102fd90610c60565b801561034a5780601f1061031f5761010080835404028352916020019161034a565b820191906000526020600020905b81548152906001019060200180831161032d57829003601f168201915b505050505081565b7ff0c57e16840df040f15088dc2f81fe391c3923bec73e23a9662efc9c229c6a008054600160401b810460ff16159067ffffffffffffffff166000811580156103985750825b905060008267ffffffffffffffff1660011480156103b55750303b155b9050811580156103c3575080155b156103e15760405163f92ee8a960e01b815260040160405180910390fd5b845467ffffffffffffffff19166001178555831561040b57845460ff60401b1916600160401b1785555b3460000361042c5760405163af59d58760e01b815260040160405180910390fd5b8860000361044d5760405163e995dc6360e01b815260040160405180910390fd5b865160000361046f576040516313c7ae2f60e21b815260040160405180910390fd5b6000899055600288905560036104858882610ce9565b506000600155600780546001600160a01b0319166001600160a01b03881617905583156104ec57845460ff60401b19168555604051600181527fc7f505b2f371ae2175ee4913f4499e1f2633a7b5936321eed1cdaeb6115181d29060200160405180910390a15b505050505050505050565b60606005805480602002602001604051908101604052809291908181526020016000905b828210156105c757838290600052602060002001805461053a90610c60565b80601f016020809104026020016040519081016040528092919081815260200182805461056690610c60565b80156105b35780601f10610588576101008083540402835291602001916105b3565b820191906000526020600020905b81548152906001019060200180831161059657829003601f168201915b50505050508152602001906001019061051b565b50505050905090565b6007546000546004546001600160a01b0390921691106106035760405163010691dd60e21b815260040160405180910390fd5b6040516331a9108f60e11b8152600481018390526001600160a01b03821690636352211e90602401602060405180830381865afa158015610648573d6000803e3d6000fd5b505050506040513d601f19601f8201168201806040525081019061066c9190610da8565b6001600160a01b0316336001600160a01b03161461069d57604051633c6ad7ab60e01b815260040160405180910390fd5b60025460405163167e669360e21b8152600481018490526001600160a01b038316906359f99a4c90602401602060405180830381865afa1580156106e5573d6000803e3d6000fd5b505050506040513d601f19601f820116820180604052508101906107099190610dc5565b1461072757604051633c6ad7ab60e01b815260040160405180910390fd5b6004805460018101825560009182527f8a35acfbc15ff81a39ae7d344fd709f28e8600b4aa8c65c6b64bfe7fe36bd19b0180546001600160a01b0319163390811790915560405190917fa78fc22d4599bb0c6086d2af06bc1158a45e81f81994d0734c428ab181c1463f91a25050565b6001600160a01b03811660009081526006602052604090208054606091906107be90610c60565b80601f01602080910402602001604051908101604052809291908181526020018280546107ea90610c60565b80156108375780601f1061080c57610100808354040283529160200191610837565b820191906000526020600020905b81548152906001019060200180831161081a57829003601f168201915b50505050509050919050565b6000805b6004548110156108c8576004818154811061086457610864610dde565b6000918252602090912001546001600160a01b03163314801561089757503360009081526008602052604090205460ff16155b156108c057336000908152600860205260409020805460ff1916600190811790915591506108c8565b600101610847565b50806108e757604051633c6ad7ab60e01b815260040160405180910390fd5b600180549060006108f783610df4565b9091555050600580546001810182556000919091527f036b6384b5eca791c62761152d0c79bb0604c104a5fb6f4eb0703f3154bb3db0016109388382610ce9565b503360009081526006602052604090206109528382610ce9565b50600080546109619047610e1b565b604051909150600090339083908381818185875af1925050503d80600081146109a6576040519150601f19603f3d011682016040523d82523d6000602084013e6109ab565b606091505b50509050806109cd576040516304b0d8e560e41b815260040160405180910390fd5b60405182815233907f8ae981fd6e59c6d07da7830a81e9ce9d858bbc67999aa4dd19709e6691a157be9060200160405180910390a250505050565b600060208284031215610a1a57600080fd5b5035919050565b6000815180845260005b81811015610a4757602081850181015186830182015201610a2b565b506000602082860101526020601f19601f83011685010191505092915050565b602081526000610a7a6020830184610a21565b9392505050565b634e487b7160e01b600052604160045260246000fd5b600082601f830112610aa857600080fd5b813567ffffffffffffffff811115610ac257610ac2610a81565b604051601f8201601f19908116603f0116810167ffffffffffffffff81118282101715610af157610af1610a81565b604052818152838201602001851015610b0957600080fd5b816020850160208301376000918101602001919091529392505050565b6001600160a01b0381168114610b3b57600080fd5b50565b60008060008060808587031215610b5457600080fd5b8435935060208501359250604085013567ffffffffffffffff811115610b7957600080fd5b610b8587828801610a97565b9250506060850135610b9681610b26565b939692955090935050565b6000602082016020835280845180835260408501915060408160051b86010192506020860160005b82811015610bfa57603f19878603018452610be5858351610a21565b94506020938401939190910190600101610bc9565b50929695505050505050565b600060208284031215610c1857600080fd5b8135610a7a81610b26565b600060208284031215610c3557600080fd5b813567ffffffffffffffff811115610c4c57600080fd5b610c5884828501610a97565b949350505050565b600181811c90821680610c7457607f821691505b602082108103610c9457634e487b7160e01b600052602260045260246000fd5b50919050565b601f821115610ce457806000526020600020601f840160051c81016020851015610cc15750805b601f840160051c820191505b81811015610ce15760008155600101610ccd565b50505b505050565b815167ffffffffffffffff811115610d0357610d03610a81565b610d1781610d118454610c60565b84610c9a565b6020601f821160018114610d4b5760008315610d335750848201515b600019600385901b1c1916600184901b178455610ce1565b600084815260208120601f198516915b82811015610d7b5787850151825560209485019460019092019101610d5b565b5084821015610d995786840151600019600387901b60f8161c191681555b50505050600190811b01905550565b600060208284031215610dba57600080fd5b8151610a7a81610b26565b600060208284031215610dd757600080fd5b5051919050565b634e487b7160e01b600052603260045260246000fd5b600060018201610e1457634e487b7160e01b600052601160045260246000fd5b5060010190565b600082610e3857634e487b7160e01b600052601260045260246000fd5b50049056fea2646970667358221220d7f9737f51790cd3291556b38cefb1b1ae375a43be2e2b2b854eb3f9caeb1cbb64736f6c634300081a0033","linkReferences":{}},"methodIdentifiers":{"addReviewer(uint256)":"4d70d38a","claimReviewReward(string)":"758171ab","getAllReviews()":"45a7b01c","getPoolIsFull()":"b698a376","getReview(address)":"694a34bb","getReviewProgress()":"0ba11143","hasReviewed(address)":"f5c6cc29","initialize(uint256,bytes32,string,address)":"4270a11c","isReviewCompleted()":"def5198b","paperUri()":"0c107357","requiredReviewerNumber()":"4f98633a","reviewersList(uint256)":"02a5d5f0","tagTypesHash()":"b3d63137"},"id":35}