{"abi":[{"type":"constructor","inputs":[],"stateMutability":"nonpayable"},{"type":"receive","stateMutability":"payable"},{"type":"function","name":"addReviewer","inputs":[{"name":"_tokenId","type":"uint256","internalType":"uint256"}],"outputs":[],"stateMutability":"nonpayable"},{"type":"function","name":"claimReviewReward","inputs":[{"name":"_review","type":"string","internalType":"string"}],"outputs":[],"stateMutability":"nonpayable"},{"type":"function","name":"getAllReviews","inputs":[],"outputs":[{"name":"","type":"string[]","internalType":"string[]"}],"stateMutability":"view"},{"type":"function","name":"getPoolIsFull","inputs":[],"outputs":[{"name":"","type":"bool","internalType":"bool"}],"stateMutability":"view"},{"type":"function","name":"getReview","inputs":[{"name":"_reviewer","type":"address","internalType":"address"}],"outputs":[{"name":"","type":"string","internalType":"string"}],"stateMutability":"view"},{"type":"function","name":"getReviewProgress","inputs":[],"outputs":[{"name":"","type":"uint256","internalType":"uint256"}],"stateMutability":"view"},{"type":"function","name":"hasReviewed","inputs":[{"name":"","type":"address","internalType":"address"}],"outputs":[{"name":"","type":"bool","internalType":"bool"}],"stateMutability":"view"},{"type":"function","name":"initialize","inputs":[{"name":"_reviewers","type":"uint256","internalType":"uint256"},{"name":"_tagTypesHash","type":"bytes32","internalType":"bytes32"},{"name":"_paperUri","type":"string","internalType":"string"},{"name":"_paperTitle","type":"string","internalType":"string"},{"name":"_SBTAddress","type":"address","internalType":"address"}],"outputs":[],"stateMutability":"payable"},{"type":"function","name":"isReviewCompleted","inputs":[],"outputs":[{"name":"","type":"bool","internalType":"bool"}],"stateMutability":"view"},{"type":"function","name":"paperTitle","inputs":[],"outputs":[{"name":"","type":"string","internalType":"string"}],"stateMutability":"view"},{"type":"function","name":"paperUri","inputs":[],"outputs":[{"name":"","type":"string","internalType":"string"}],"stateMutability":"view"},{"type":"function","name":"requiredReviewerNumber","inputs":[],"outputs":[{"name":"","type":"uint256","internalType":"uint256"}],"stateMutability":"view"},{"type":"function","name":"reviewersList","inputs":[{"name":"","type":"uint256","internalType":"uint256"}],"outputs":[{"name":"","type":"address","internalType":"address"}],"stateMutability":"view"},{"type":"function","name":"tagTypesHash","inputs":[],"outputs":[{"name":"","type":"bytes32","internalType":"bytes32"}],"stateMutability":"view"},{"type":"event","name":"Initialized","inputs":[{"name":"version","type":"uint64","indexed":false,"internalType":"uint64"}],"anonymous":false},{"type":"event","name":"ReviewRewardClaimed","inputs":[{"name":"reviewer","type":"address","indexed":true,"internalType":"address"},{"name":"amount","type":"uint256","indexed":false,"internalType":"uint256"}],"anonymous":false},{"type":"event","name":"ReviewerAdded","inputs":[{"name":"reviewer","type":"address","indexed":true,"internalType":"address"}],"anonymous":false},{"type":"error","name":"InvalidInitialization","inputs":[]},{"type":"error","name":"NotInitializing","inputs":[]},{"type":"error","name":"ReviewPool__EmptyPaperUri","inputs":[]},{"type":"error","name":"ReviewPool__Full","inputs":[]},{"type":"error","name":"ReviewPool__InvalidPayment","inputs":[]},{"type":"error","name":"ReviewPool__InvalidReviewer","inputs":[]},{"type":"error","name":"ReviewPool__InvalidReviewers","inputs":[]},{"type":"error","name":"ReviewPool__ReviewClaimFailed","inputs":[]}],"bytecode":{"object":"0x6080604052348015600f57600080fd5b506016601a565b60ca565b7ff0c57e16840df040f15088dc2f81fe391c3923bec73e23a9662efc9c229c6a00805468010000000000000000900460ff161560695760405163f92ee8a960e01b815260040160405180910390fd5b80546001600160401b039081161460c75780546001600160401b0319166001600160401b0390811782556040519081527fc7f505b2f371ae2175ee4913f4499e1f2633a7b5936321eed1cdaeb6115181d29060200160405180910390a15b50565b610edf806100d96000396000f3fe6080604052600436106100e15760003560e01c8063758171ab1161007f578063bb16a68c11610059578063bb16a68c14610258578063c4cf251c1461026b578063def5198b14610280578063f5c6cc291461029a57600080fd5b8063758171ab146101fc578063b3d631371461021c578063b698a3761461023257600080fd5b806345a7b01c116100bb57806345a7b01c146101825780634d70d38a146101a45780634f98633a146101c6578063694a34bb146101dc57600080fd5b806302a5d5f0146101045780630ba11143146101415780630c1073571461016057600080fd5b366100ff5760405163af59d58760e01b815260040160405180910390fd5b600080fd5b34801561011057600080fd5b5061012461011f366004610a46565b6102ca565b6040516001600160a01b0390911681526020015b60405180910390f35b34801561014d57600080fd5b506001545b604051908152602001610138565b34801561016c57600080fd5b506101756102f4565b6040516101389190610aa5565b34801561018e57600080fd5b50610197610382565b6040516101389190610abf565b3480156101b057600080fd5b506101c46101bf366004610a46565b61045b565b005b3480156101d257600080fd5b5061015260005481565b3480156101e857600080fd5b506101756101f7366004610b3c565b610622565b34801561020857600080fd5b506101c4610217366004610bfe565b6106ce565b34801561022857600080fd5b5061015260025481565b34801561023e57600080fd5b5060005460055410155b6040519015158152602001610138565b6101c4610266366004610c3b565b610893565b34801561027757600080fd5b50610175610a39565b34801561028c57600080fd5b506000546001541015610248565b3480156102a657600080fd5b506102486102b5366004610b3c565b60096020526000908152604090205460ff1681565b600581815481106102da57600080fd5b6000918252602090912001546001600160a01b0316905081565b6003805461030190610ccc565b80601f016020809104026020016040519081016040528092919081815260200182805461032d90610ccc565b801561037a5780601f1061034f5761010080835404028352916020019161037a565b820191906000526020600020905b81548152906001019060200180831161035d57829003601f168201915b505050505081565b60606006805480602002602001604051908101604052809291908181526020016000905b828210156104525783829060005260206000200180546103c590610ccc565b80601f01602080910402602001604051908101604052809291908181526020018280546103f190610ccc565b801561043e5780601f106104135761010080835404028352916020019161043e565b820191906000526020600020905b81548152906001019060200180831161042157829003601f168201915b5050505050815260200190600101906103a6565b50505050905090565b6008546000546005546001600160a01b03909216911061048e5760405163010691dd60e21b815260040160405180910390fd5b6040516331a9108f60e11b8152600481018390526001600160a01b03821690636352211e90602401602060405180830381865afa1580156104d3573d6000803e3d6000fd5b505050506040513d601f19601f820116820180604052508101906104f79190610d06565b6001600160a01b0316336001600160a01b03161461052857604051633c6ad7ab60e01b815260040160405180910390fd5b60025460405163167e669360e21b8152600481018490526001600160a01b038316906359f99a4c90602401602060405180830381865afa158015610570573d6000803e3d6000fd5b505050506040513d601f19601f820116820180604052508101906105949190610d23565b146105b257604051633c6ad7ab60e01b815260040160405180910390fd5b6005805460018101825560009182527f036b6384b5eca791c62761152d0c79bb0604c104a5fb6f4eb0703f3154bb3db00180546001600160a01b0319163390811790915560405190917fa78fc22d4599bb0c6086d2af06bc1158a45e81f81994d0734c428ab181c1463f91a25050565b6001600160a01b038116600090815260076020526040902080546060919061064990610ccc565b80601f016020809104026020016040519081016040528092919081815260200182805461067590610ccc565b80156106c25780601f10610697576101008083540402835291602001916106c2565b820191906000526020600020905b8154815290600101906020018083116106a557829003601f168201915b50505050509050919050565b6000805b60055481101561075357600581815481106106ef576106ef610d3c565b6000918252602090912001546001600160a01b03163314801561072257503360009081526009602052604090205460ff16155b1561074b57336000908152600960205260409020805460ff191660019081179091559150610753565b6001016106d2565b508061077257604051633c6ad7ab60e01b815260040160405180910390fd5b6001805490600061078283610d52565b9091555050600680546001810182556000919091527ff652222313e28459528d920b65115c16c04f3efc82aaedc97be59f3f377c0d3f016107c38382610dc8565b503360009081526007602052604090206107dd8382610dc8565b50600080546107ec9047610e87565b604051909150600090339083908381818185875af1925050503d8060008114610831576040519150601f19603f3d011682016040523d82523d6000602084013e610836565b606091505b5050905080610858576040516304b0d8e560e41b815260040160405180910390fd5b60405182815233907f8ae981fd6e59c6d07da7830a81e9ce9d858bbc67999aa4dd19709e6691a157be9060200160405180910390a250505050565b7ff0c57e16840df040f15088dc2f81fe391c3923bec73e23a9662efc9c229c6a008054600160401b810460ff16159067ffffffffffffffff166000811580156108d95750825b905060008267ffffffffffffffff1660011480156108f65750303b155b905081158015610904575080155b156109225760405163f92ee8a960e01b815260040160405180910390fd5b845467ffffffffffffffff19166001178555831561094c57845460ff60401b1916600160401b1785555b3460000361096d5760405163af59d58760e01b815260040160405180910390fd5b8960000361098e5760405163e995dc6360e01b815260040160405180910390fd5b87516000036109b0576040516313c7ae2f60e21b815260040160405180910390fd5b60008a9055600289905560036109c68982610dc8565b506000600155600880546001600160a01b0319166001600160a01b0388161790558315610a2d57845460ff60401b19168555604051600181527fc7f505b2f371ae2175ee4913f4499e1f2633a7b5936321eed1cdaeb6115181d29060200160405180910390a15b50505050505050505050565b6004805461030190610ccc565b600060208284031215610a5857600080fd5b5035919050565b6000815180845260005b81811015610a8557602081850181015186830182015201610a69565b506000602082860101526020601f19601f83011685010191505092915050565b602081526000610ab86020830184610a5f565b9392505050565b6000602082016020835280845180835260408501915060408160051b86010192506020860160005b82811015610b1857603f19878603018452610b03858351610a5f565b94506020938401939190910190600101610ae7565b50929695505050505050565b6001600160a01b0381168114610b3957600080fd5b50565b600060208284031215610b4e57600080fd5b8135610ab881610b24565b634e487b7160e01b600052604160045260246000fd5b600082601f830112610b8057600080fd5b813567ffffffffffffffff811115610b9a57610b9a610b59565b604051601f8201601f19908116603f0116810167ffffffffffffffff81118282101715610bc957610bc9610b59565b604052818152838201602001851015610be157600080fd5b816020850160208301376000918101602001919091529392505050565b600060208284031215610c1057600080fd5b813567ffffffffffffffff811115610c2757600080fd5b610c3384828501610b6f565b949350505050565b600080600080600060a08688031215610c5357600080fd5b8535945060208601359350604086013567ffffffffffffffff811115610c7857600080fd5b610c8488828901610b6f565b935050606086013567ffffffffffffffff811115610ca157600080fd5b610cad88828901610b6f565b9250506080860135610cbe81610b24565b809150509295509295909350565b600181811c90821680610ce057607f821691505b602082108103610d0057634e487b7160e01b600052602260045260246000fd5b50919050565b600060208284031215610d1857600080fd5b8151610ab881610b24565b600060208284031215610d3557600080fd5b5051919050565b634e487b7160e01b600052603260045260246000fd5b600060018201610d7257634e487b7160e01b600052601160045260246000fd5b5060010190565b601f821115610dc357806000526020600020601f840160051c81016020851015610da05750805b601f840160051c820191505b81811015610dc05760008155600101610dac565b50505b505050565b815167ffffffffffffffff811115610de257610de2610b59565b610df681610df08454610ccc565b84610d79565b6020601f821160018114610e2a5760008315610e125750848201515b600019600385901b1c1916600184901b178455610dc0565b600084815260208120601f198516915b82811015610e5a5787850151825560209485019460019092019101610e3a565b5084821015610e785786840151600019600387901b60f8161c191681555b50505050600190811b01905550565b600082610ea457634e487b7160e01b600052601260045260246000fd5b50049056fea2646970667358221220273f6203a9678af8a145678b065315d1705eb8b4466bbc45180d7370b8ad018964736f6c634300081a0033","linkReferences":{}},"methodIdentifiers":{"addReviewer(uint256)":"4d70d38a","claimReviewReward(string)":"758171ab","getAllReviews()":"45a7b01c","getPoolIsFull()":"b698a376","getReview(address)":"694a34bb","getReviewProgress()":"0ba11143","hasReviewed(address)":"f5c6cc29","initialize(uint256,bytes32,string,string,address)":"bb16a68c","isReviewCompleted()":"def5198b","paperTitle()":"c4cf251c","paperUri()":"0c107357","requiredReviewerNumber()":"4f98633a","reviewersList(uint256)":"02a5d5f0","tagTypesHash()":"b3d63137"},"id":35}