{"abi":[{"type":"constructor","inputs":[],"stateMutability":"nonpayable"},{"type":"receive","stateMutability":"payable"},{"type":"function","name":"addReviewer","inputs":[{"name":"_tokenId","type":"uint256","internalType":"uint256"}],"outputs":[],"stateMutability":"nonpayable"},{"type":"function","name":"author","inputs":[],"outputs":[{"name":"","type":"address","internalType":"address"}],"stateMutability":"view"},{"type":"function","name":"claimReviewReward","inputs":[{"name":"_review","type":"string","internalType":"string"}],"outputs":[],"stateMutability":"nonpayable"},{"type":"function","name":"getAllReviews","inputs":[],"outputs":[{"name":"","type":"string[]","internalType":"string[]"}],"stateMutability":"view"},{"type":"function","name":"getPoolIsFull","inputs":[],"outputs":[{"name":"","type":"bool","internalType":"bool"}],"stateMutability":"view"},{"type":"function","name":"getReview","inputs":[{"name":"_reviewer","type":"address","internalType":"address"}],"outputs":[{"name":"","type":"string","internalType":"string"}],"stateMutability":"view"},{"type":"function","name":"getReviewProgress","inputs":[],"outputs":[{"name":"","type":"uint256","internalType":"uint256"}],"stateMutability":"view"},{"type":"function","name":"hasReviewed","inputs":[{"name":"","type":"address","internalType":"address"}],"outputs":[{"name":"","type":"bool","internalType":"bool"}],"stateMutability":"view"},{"type":"function","name":"initialize","inputs":[{"name":"_reviewers","type":"uint256","internalType":"uint256"},{"name":"_tagTypesHash","type":"bytes32","internalType":"bytes32"},{"name":"_paperUri","type":"string","internalType":"string"},{"name":"_paperTitle","type":"string","internalType":"string"},{"name":"_SBTAddress","type":"address","internalType":"address"},{"name":"_author","type":"address","internalType":"address"}],"outputs":[],"stateMutability":"payable"},{"type":"function","name":"isReviewCompleted","inputs":[],"outputs":[{"name":"","type":"bool","internalType":"bool"}],"stateMutability":"view"},{"type":"function","name":"paperTitle","inputs":[],"outputs":[{"name":"","type":"string","internalType":"string"}],"stateMutability":"view"},{"type":"function","name":"paperUri","inputs":[],"outputs":[{"name":"","type":"string","internalType":"string"}],"stateMutability":"view"},{"type":"function","name":"requiredReviewerNumber","inputs":[],"outputs":[{"name":"","type":"uint256","internalType":"uint256"}],"stateMutability":"view"},{"type":"function","name":"reviewersList","inputs":[{"name":"","type":"uint256","internalType":"uint256"}],"outputs":[{"name":"","type":"address","internalType":"address"}],"stateMutability":"view"},{"type":"function","name":"tagTypesHash","inputs":[],"outputs":[{"name":"","type":"bytes32","internalType":"bytes32"}],"stateMutability":"view"},{"type":"event","name":"Initialized","inputs":[{"name":"version","type":"uint64","indexed":false,"internalType":"uint64"}],"anonymous":false},{"type":"event","name":"ReviewRewardClaimed","inputs":[{"name":"reviewer","type":"address","indexed":true,"internalType":"address"},{"name":"amount","type":"uint256","indexed":false,"internalType":"uint256"}],"anonymous":false},{"type":"event","name":"ReviewerAdded","inputs":[{"name":"reviewer","type":"address","indexed":true,"internalType":"address"}],"anonymous":false},{"type":"error","name":"InvalidInitialization","inputs":[]},{"type":"error","name":"NotInitializing","inputs":[]},{"type":"error","name":"ReviewPool__EmptyPaperUri","inputs":[]},{"type":"error","name":"ReviewPool__Full","inputs":[]},{"type":"error","name":"ReviewPool__InvalidPayment","inputs":[]},{"type":"error","name":"ReviewPool__InvalidReviewer","inputs":[]},{"type":"error","name":"ReviewPool__InvalidReviewers","inputs":[]},{"type":"error","name":"ReviewPool__ReviewClaimFailed","inputs":[]}],"bytecode":{"object":"0x6080604052348015600f57600080fd5b506016601a565b60ca565b7ff0c57e16840df040f15088dc2f81fe391c3923bec73e23a9662efc9c229c6a00805468010000000000000000900460ff161560695760405163f92ee8a960e01b815260040160405180910390fd5b80546001600160401b039081161460c75780546001600160401b0319166001600160401b0390811782556040519081527fc7f505b2f371ae2175ee4913f4499e1f2633a7b5936321eed1cdaeb6115181d29060200160405180910390a15b50565b610f44806100d96000396000f3fe6080604052600436106100ec5760003560e01c8063758171ab1161008a578063c4cf251c11610059578063c4cf251c14610283578063def5198b14610298578063f3ffd4b9146102b2578063f5c6cc29146102c557600080fd5b8063758171ab14610207578063a6c3e6b914610227578063b3d6313714610247578063b698a3761461025d57600080fd5b806345a7b01c116100c657806345a7b01c1461018d5780634d70d38a146101af5780634f98633a146101d1578063694a34bb146101e757600080fd5b806302a5d5f01461010f5780630ba111431461014c5780630c1073571461016b57600080fd5b3661010a5760405163af59d58760e01b815260040160405180910390fd5b600080fd5b34801561011b57600080fd5b5061012f61012a366004610a9a565b6102f5565b6040516001600160a01b0390911681526020015b60405180910390f35b34801561015857600080fd5b506001545b604051908152602001610143565b34801561017757600080fd5b5061018061031f565b6040516101439190610af9565b34801561019957600080fd5b506101a26103ad565b6040516101439190610b13565b3480156101bb57600080fd5b506101cf6101ca366004610a9a565b610486565b005b3480156101dd57600080fd5b5061015d60005481565b3480156101f357600080fd5b50610180610202366004610b90565b61064d565b34801561021357600080fd5b506101cf610222366004610c52565b6106f9565b34801561023357600080fd5b5060055461012f906001600160a01b031681565b34801561025357600080fd5b5061015d60025481565b34801561026957600080fd5b5060005460065410155b6040519015158152602001610143565b34801561028f57600080fd5b506101806108be565b3480156102a457600080fd5b506000546001541015610273565b6101cf6102c0366004610c8f565b6108cb565b3480156102d157600080fd5b506102736102e0366004610b90565b600a6020526000908152604090205460ff1681565b6006818154811061030557600080fd5b6000918252602090912001546001600160a01b0316905081565b6003805461032c90610d31565b80601f016020809104026020016040519081016040528092919081815260200182805461035890610d31565b80156103a55780601f1061037a576101008083540402835291602001916103a5565b820191906000526020600020905b81548152906001019060200180831161038857829003601f168201915b505050505081565b60606007805480602002602001604051908101604052809291908181526020016000905b8282101561047d5783829060005260206000200180546103f090610d31565b80601f016020809104026020016040519081016040528092919081815260200182805461041c90610d31565b80156104695780601f1061043e57610100808354040283529160200191610469565b820191906000526020600020905b81548152906001019060200180831161044c57829003601f168201915b5050505050815260200190600101906103d1565b50505050905090565b6009546000546006546001600160a01b0390921691106104b95760405163010691dd60e21b815260040160405180910390fd5b6040516331a9108f60e11b8152600481018390526001600160a01b03821690636352211e90602401602060405180830381865afa1580156104fe573d6000803e3d6000fd5b505050506040513d601f19601f820116820180604052508101906105229190610d6b565b6001600160a01b0316336001600160a01b03161461055357604051633c6ad7ab60e01b815260040160405180910390fd5b60025460405163167e669360e21b8152600481018490526001600160a01b038316906359f99a4c90602401602060405180830381865afa15801561059b573d6000803e3d6000fd5b505050506040513d601f19601f820116820180604052508101906105bf9190610d88565b146105dd57604051633c6ad7ab60e01b815260040160405180910390fd5b6006805460018101825560009182527ff652222313e28459528d920b65115c16c04f3efc82aaedc97be59f3f377c0d3f0180546001600160a01b0319163390811790915560405190917fa78fc22d4599bb0c6086d2af06bc1158a45e81f81994d0734c428ab181c1463f91a25050565b6001600160a01b038116600090815260086020526040902080546060919061067490610d31565b80601f01602080910402602001604051908101604052809291908181526020018280546106a090610d31565b80156106ed5780601f106106c2576101008083540402835291602001916106ed565b820191906000526020600020905b8154815290600101906020018083116106d057829003601f168201915b50505050509050919050565b6000805b60065481101561077e576006818154811061071a5761071a610da1565b6000918252602090912001546001600160a01b03163314801561074d5750336000908152600a602052604090205460ff16155b1561077657336000908152600a60205260409020805460ff19166001908117909155915061077e565b6001016106fd565b508061079d57604051633c6ad7ab60e01b815260040160405180910390fd5b600180549060006107ad83610db7565b9091555050600780546001810182556000919091527fa66cc928b5edb82af9bd49922954155ab7b0942694bea4ce44661d9a8736c688016107ee8382610e2d565b503360009081526008602052604090206108088382610e2d565b50600080546108179047610eec565b604051909150600090339083908381818185875af1925050503d806000811461085c576040519150601f19603f3d011682016040523d82523d6000602084013e610861565b606091505b5050905080610883576040516304b0d8e560e41b815260040160405180910390fd5b60405182815233907f8ae981fd6e59c6d07da7830a81e9ce9d858bbc67999aa4dd19709e6691a157be9060200160405180910390a250505050565b6004805461032c90610d31565b7ff0c57e16840df040f15088dc2f81fe391c3923bec73e23a9662efc9c229c6a008054600160401b810460ff16159067ffffffffffffffff166000811580156109115750825b905060008267ffffffffffffffff16600114801561092e5750303b155b90508115801561093c575080155b1561095a5760405163f92ee8a960e01b815260040160405180910390fd5b845467ffffffffffffffff19166001178555831561098457845460ff60401b1916600160401b1785555b346000036109a55760405163af59d58760e01b815260040160405180910390fd5b8a6000036109c65760405163e995dc6360e01b815260040160405180910390fd5b88516000036109e8576040516313c7ae2f60e21b815260040160405180910390fd5b60008b905560028a905560036109fe8a82610e2d565b506000600155600980546001600160a01b0319166001600160a01b0389161790556004610a2b8982610e2d565b50600580546001600160a01b0319166001600160a01b0388161790558315610a8d57845460ff60401b19168555604051600181527fc7f505b2f371ae2175ee4913f4499e1f2633a7b5936321eed1cdaeb6115181d29060200160405180910390a15b5050505050505050505050565b600060208284031215610aac57600080fd5b5035919050565b6000815180845260005b81811015610ad957602081850181015186830182015201610abd565b506000602082860101526020601f19601f83011685010191505092915050565b602081526000610b0c6020830184610ab3565b9392505050565b6000602082016020835280845180835260408501915060408160051b86010192506020860160005b82811015610b6c57603f19878603018452610b57858351610ab3565b94506020938401939190910190600101610b3b565b50929695505050505050565b6001600160a01b0381168114610b8d57600080fd5b50565b600060208284031215610ba257600080fd5b8135610b0c81610b78565b634e487b7160e01b600052604160045260246000fd5b600082601f830112610bd457600080fd5b813567ffffffffffffffff811115610bee57610bee610bad565b604051601f8201601f19908116603f0116810167ffffffffffffffff81118282101715610c1d57610c1d610bad565b604052818152838201602001851015610c3557600080fd5b816020850160208301376000918101602001919091529392505050565b600060208284031215610c6457600080fd5b813567ffffffffffffffff811115610c7b57600080fd5b610c8784828501610bc3565b949350505050565b60008060008060008060c08789031215610ca857600080fd5b8635955060208701359450604087013567ffffffffffffffff811115610ccd57600080fd5b610cd989828a01610bc3565b945050606087013567ffffffffffffffff811115610cf657600080fd5b610d0289828a01610bc3565b9350506080870135610d1381610b78565b915060a0870135610d2381610b78565b809150509295509295509295565b600181811c90821680610d4557607f821691505b602082108103610d6557634e487b7160e01b600052602260045260246000fd5b50919050565b600060208284031215610d7d57600080fd5b8151610b0c81610b78565b600060208284031215610d9a57600080fd5b5051919050565b634e487b7160e01b600052603260045260246000fd5b600060018201610dd757634e487b7160e01b600052601160045260246000fd5b5060010190565b601f821115610e2857806000526020600020601f840160051c81016020851015610e055750805b601f840160051c820191505b81811015610e255760008155600101610e11565b50505b505050565b815167ffffffffffffffff811115610e4757610e47610bad565b610e5b81610e558454610d31565b84610dde565b6020601f821160018114610e8f5760008315610e775750848201515b600019600385901b1c1916600184901b178455610e25565b600084815260208120601f198516915b82811015610ebf5787850151825560209485019460019092019101610e9f565b5084821015610edd5786840151600019600387901b60f8161c191681555b50505050600190811b01905550565b600082610f0957634e487b7160e01b600052601260045260246000fd5b50049056fea2646970667358221220465972e6034f14f114145c9ca272f7f19bb87d1ec70ad82bd9dbf8953015a75264736f6c634300081a0033","linkReferences":{}},"methodIdentifiers":{"addReviewer(uint256)":"4d70d38a","author()":"a6c3e6b9","claimReviewReward(string)":"758171ab","getAllReviews()":"45a7b01c","getPoolIsFull()":"b698a376","getReview(address)":"694a34bb","getReviewProgress()":"0ba11143","hasReviewed(address)":"f5c6cc29","initialize(uint256,bytes32,string,string,address,address)":"f3ffd4b9","isReviewCompleted()":"def5198b","paperTitle()":"c4cf251c","paperUri()":"0c107357","requiredReviewerNumber()":"4f98633a","reviewersList(uint256)":"02a5d5f0","tagTypesHash()":"b3d63137"},"id":35}