{"abi":[{"type":"constructor","inputs":[{"name":"_reviewPoolImplementation","type":"address","internalType":"address"},{"name":"_reviewerSBTAddress","type":"address","internalType":"address"}],"stateMutability":"nonpayable"},{"type":"function","name":"REVIEWER_SBT_ADDRESS","inputs":[],"outputs":[{"name":"","type":"address","internalType":"address"}],"stateMutability":"view"},{"type":"function","name":"addressToReviewPools","inputs":[{"name":"","type":"address","internalType":"address"},{"name":"","type":"uint256","internalType":"uint256"}],"outputs":[{"name":"","type":"uint256","internalType":"uint256"}],"stateMutability":"view"},{"type":"function","name":"createReviewPool","inputs":[{"name":"_tagTypesHash","type":"bytes32","internalType":"bytes32"},{"name":"_paperUri","type":"string","internalType":"string"},{"name":"_paperTitle","type":"string","internalType":"string"},{"name":"_requiredReviewerNumber","type":"uint256","internalType":"uint256"}],"outputs":[],"stateMutability":"payable"},{"type":"function","name":"getReviewPoolsByAddress","inputs":[{"name":"_address","type":"address","internalType":"address"}],"outputs":[{"name":"","type":"uint256[]","internalType":"uint256[]"}],"stateMutability":"view"},{"type":"function","name":"owner","inputs":[],"outputs":[{"name":"","type":"address","internalType":"address"}],"stateMutability":"view"},{"type":"function","name":"predictNextDeterministicAddress","inputs":[],"outputs":[{"name":"","type":"address","internalType":"address"}],"stateMutability":"view"},{"type":"function","name":"renounceOwnership","inputs":[],"outputs":[],"stateMutability":"nonpayable"},{"type":"function","name":"reviewPoolCount","inputs":[],"outputs":[{"name":"","type":"uint256","internalType":"uint256"}],"stateMutability":"view"},{"type":"function","name":"reviewPoolImplementation","inputs":[],"outputs":[{"name":"","type":"address","internalType":"address"}],"stateMutability":"view"},{"type":"function","name":"reviewPoolToAddress","inputs":[{"name":"","type":"uint256","internalType":"uint256"}],"outputs":[{"name":"","type":"address","internalType":"address"}],"stateMutability":"view"},{"type":"function","name":"transferOwnership","inputs":[{"name":"newOwner","type":"address","internalType":"address"}],"outputs":[],"stateMutability":"nonpayable"},{"type":"event","name":"OwnershipTransferred","inputs":[{"name":"previousOwner","type":"address","indexed":true,"internalType":"address"},{"name":"newOwner","type":"address","indexed":true,"internalType":"address"}],"anonymous":false},{"type":"event","name":"ReviewPoolCreated","inputs":[{"name":"reviewPoolId","type":"uint256","indexed":true,"internalType":"uint256"},{"name":"reviewPoolAddress","type":"address","indexed":true,"internalType":"address"}],"anonymous":false},{"type":"error","name":"ERC1167FailedCreateClone","inputs":[]},{"type":"error","name":"OwnableInvalidOwner","inputs":[{"name":"owner","type":"address","internalType":"address"}]},{"type":"error","name":"OwnableUnauthorizedAccount","inputs":[{"name":"account","type":"address","internalType":"address"}]}],"bytecode":{"object":"0x60c060405234801561001057600080fd5b50604051610a54380380610a5483398101604081905261002f916100e2565b338061005557604051631e4fbdf760e01b81526000600482015260240160405180910390fd5b61005e81610076565b506001600160a01b039182166080521660a052610115565b600080546001600160a01b038381166001600160a01b0319831681178455604051919092169283917f8be0079c531659141344cd1fd0a4f28419497f9722a3daafe3b4186f6b6457e09190a35050565b80516001600160a01b03811681146100dd57600080fd5b919050565b600080604083850312156100f557600080fd5b6100fe836100c6565b915061010c602084016100c6565b90509250929050565b60805160a05161090661014e60003960008181610131015261035b01526000818160b3015281816102de015261031d01526109066000f3fe60806040526004361061009c5760003560e01c80638da5cb5b116100645780638da5cb5b1461018e578063a9f92716146101ac578063b865b155146101c1578063d56ee774146101f7578063e04611761461020a578063f2fde38b1461022a57600080fd5b80630704257d146100a157806311dc00dc146100f25780635fb42e1b1461011f578063715018a6146101535780637206e6371461016a575b600080fd5b3480156100ad57600080fd5b506100d57f000000000000000000000000000000000000000000000000000000000000000081565b6040516001600160a01b0390911681526020015b60405180910390f35b3480156100fe57600080fd5b5061011261010d36600461064b565b61024a565b6040516100e99190610666565b34801561012b57600080fd5b506100d57f000000000000000000000000000000000000000000000000000000000000000081565b34801561015f57600080fd5b506101686102b6565b005b34801561017657600080fd5b5061018060035481565b6040519081526020016100e9565b34801561019a57600080fd5b506000546001600160a01b03166100d5565b3480156101b857600080fd5b506100d56102ca565b3480156101cd57600080fd5b506100d56101dc3660046106a9565b6001602052600090815260409020546001600160a01b031681565b610168610205366004610767565b610309565b34801561021657600080fd5b506101806102253660046107e1565b61046b565b34801561023657600080fd5b5061016861024536600461064b565b61049c565b6001600160a01b0381166000908152600260209081526040918290208054835181840281018401909452808452606093928301828280156102aa57602002820191906000526020600020905b815481526020019060010190808311610296575b50505050509050919050565b6102be6104df565b6102c8600061050c565b565b600354600090610304906001600160a01b037f0000000000000000000000000000000000000000000000000000000000000000169061055c565b905090565b600354600090610343906001600160a01b037f000000000000000000000000000000000000000000000000000000000000000016906105c1565b9050806001600160a01b031663f3ffd4b934848888887f0000000000000000000000000000000000000000000000000000000000000000336040518863ffffffff1660e01b815260040161039c96959493929190610851565b6000604051808303818588803b1580156103b557600080fd5b505af11580156103c9573d6000803e3d6000fd5b505060038054600090815260016020818152604080842080546001600160a01b0319166001600160a01b038b1617905533845260028252832084548154938401825590845290832090910155815494509092509050610427836108a9565b90915550506003546040516001600160a01b03831691907fa28026984f0a3f5f81e8232228f0b9d3f1c5f756d4c3618b5e82d4b6a15ed10f90600090a35050505050565b6002602052816000526040600020818154811061048757600080fd5b90600052602060002001600091509150505481565b6104a46104df565b6001600160a01b0381166104d357604051631e4fbdf760e01b8152600060048201526024015b60405180910390fd5b6104dc8161050c565b50565b6000546001600160a01b031633146102c85760405163118cdaa760e01b81523360048201526024016104ca565b600080546001600160a01b038381166001600160a01b0319831681178455604051919092169283917f8be0079c531659141344cd1fd0a4f28419497f9722a3daafe3b4186f6b6457e09190a35050565b6040513060388201526f5af43d82803e903d91602b57fd5bf3ff602482015260148101839052733d602d80600a3d3981f3363d3d373d3d3d363d738152605881018290526037600c820120607882015260556043909101206000905b90505b92915050565b6000763d602d80600a3d3981f3363d3d373d3d3d363d730000008360601b60e81c176000526e5af43d82803e903d91602b57fd5bf38360781b1760205281603760096000f590506001600160a01b0381166105bb576040516330be1a3d60e21b815260040160405180910390fd5b80356001600160a01b038116811461064657600080fd5b919050565b60006020828403121561065d57600080fd5b6105b88261062f565b602080825282518282018190526000918401906040840190835b8181101561069e578351835260209384019390920191600101610680565b509095945050505050565b6000602082840312156106bb57600080fd5b5035919050565b634e487b7160e01b600052604160045260246000fd5b600082601f8301126106e957600080fd5b813567ffffffffffffffff811115610703576107036106c2565b604051601f8201601f19908116603f0116810167ffffffffffffffff81118282101715610732576107326106c2565b60405281815283820160200185101561074a57600080fd5b816020850160208301376000918101602001919091529392505050565b6000806000806080858703121561077d57600080fd5b84359350602085013567ffffffffffffffff81111561079b57600080fd5b6107a7878288016106d8565b935050604085013567ffffffffffffffff8111156107c457600080fd5b6107d0878288016106d8565b949793965093946060013593505050565b600080604083850312156107f457600080fd5b6107fd8361062f565b946020939093013593505050565b6000815180845260005b8181101561083157602081850181015186830182015201610815565b506000602082860101526020601f19601f83011685010191505092915050565b86815285602082015260c06040820152600061087060c083018761080b565b8281036060840152610882818761080b565b6001600160a01b0395861660808501529390941660a0909201919091525095945050505050565b6000600182016108c957634e487b7160e01b600052601160045260246000fd5b506001019056fea26469706673582212206466dd0e2ff46d800e39d256a22518bf9764b1eb2658583d67be0a4b2bd8d58464736f6c634300081a0033","linkReferences":{}},"methodIdentifiers":{"REVIEWER_SBT_ADDRESS()":"5fb42e1b","addressToReviewPools(address,uint256)":"e0461176","createReviewPool(bytes32,string,string,uint256)":"d56ee774","getReviewPoolsByAddress(address)":"11dc00dc","owner()":"8da5cb5b","predictNextDeterministicAddress()":"a9f92716","renounceOwnership()":"715018a6","reviewPoolCount()":"7206e637","reviewPoolImplementation()":"0704257d","reviewPoolToAddress(uint256)":"b865b155","transferOwnership(address)":"f2fde38b"},"id":36}