{"abi":[{"type":"constructor","inputs":[{"name":"_reviewPoolImplementation","type":"address","internalType":"address"},{"name":"_reviewerSBTAddress","type":"address","internalType":"address"}],"stateMutability":"nonpayable"},{"type":"function","name":"REVIEWER_SBT_ADDRESS","inputs":[],"outputs":[{"name":"","type":"address","internalType":"address"}],"stateMutability":"view"},{"type":"function","name":"addressToReviewPools","inputs":[{"name":"","type":"address","internalType":"address"},{"name":"","type":"uint256","internalType":"uint256"}],"outputs":[{"name":"","type":"uint256","internalType":"uint256"}],"stateMutability":"view"},{"type":"function","name":"createReviewPool","inputs":[{"name":"_tagTypesHash","type":"bytes32","internalType":"bytes32"},{"name":"_paperUri","type":"string","internalType":"string"},{"name":"_requiredReviewerNumber","type":"uint256","internalType":"uint256"}],"outputs":[],"stateMutability":"payable"},{"type":"function","name":"getReviewPoolsByAddress","inputs":[{"name":"_address","type":"address","internalType":"address"}],"outputs":[{"name":"","type":"uint256[]","internalType":"uint256[]"}],"stateMutability":"view"},{"type":"function","name":"owner","inputs":[],"outputs":[{"name":"","type":"address","internalType":"address"}],"stateMutability":"view"},{"type":"function","name":"predictNextDeterministicAddress","inputs":[],"outputs":[{"name":"","type":"address","internalType":"address"}],"stateMutability":"view"},{"type":"function","name":"renounceOwnership","inputs":[],"outputs":[],"stateMutability":"nonpayable"},{"type":"function","name":"reviewPoolCount","inputs":[],"outputs":[{"name":"","type":"uint256","internalType":"uint256"}],"stateMutability":"view"},{"type":"function","name":"reviewPoolImplementation","inputs":[],"outputs":[{"name":"","type":"address","internalType":"address"}],"stateMutability":"view"},{"type":"function","name":"reviewPoolToAddress","inputs":[{"name":"","type":"uint256","internalType":"uint256"}],"outputs":[{"name":"","type":"address","internalType":"address"}],"stateMutability":"view"},{"type":"function","name":"transferOwnership","inputs":[{"name":"newOwner","type":"address","internalType":"address"}],"outputs":[],"stateMutability":"nonpayable"},{"type":"event","name":"OwnershipTransferred","inputs":[{"name":"previousOwner","type":"address","indexed":true,"internalType":"address"},{"name":"newOwner","type":"address","indexed":true,"internalType":"address"}],"anonymous":false},{"type":"event","name":"ReviewPoolCreated","inputs":[{"name":"reviewPoolId","type":"uint256","indexed":true,"internalType":"uint256"},{"name":"reviewPoolAddress","type":"address","indexed":true,"internalType":"address"}],"anonymous":false},{"type":"error","name":"ERC1167FailedCreateClone","inputs":[]},{"type":"error","name":"OwnableInvalidOwner","inputs":[{"name":"owner","type":"address","internalType":"address"}]},{"type":"error","name":"OwnableUnauthorizedAccount","inputs":[{"name":"account","type":"address","internalType":"address"}]}],"bytecode":{"object":"0x60c060405234801561001057600080fd5b506040516109e73803806109e783398101604081905261002f916100e2565b338061005557604051631e4fbdf760e01b81526000600482015260240160405180910390fd5b61005e81610076565b506001600160a01b039182166080521660a052610115565b600080546001600160a01b038381166001600160a01b0319831681178455604051919092169283917f8be0079c531659141344cd1fd0a4f28419497f9722a3daafe3b4186f6b6457e09190a35050565b80516001600160a01b03811681146100dd57600080fd5b919050565b600080604083850312156100f557600080fd5b6100fe836100c6565b915061010c602084016100c6565b90509250929050565b60805160a05161089961014e60003960008181610146015261031d01526000818160b3015281816102ca015261043a01526108996000f3fe60806040526004361061009c5760003560e01c80637206e637116100645780637206e6371461017d5780638da5cb5b146101a1578063a9f92716146101bf578063b865b155146101d4578063e04611761461020a578063f2fde38b1461022a57600080fd5b80630704257d146100a157806311dc00dc146100f25780632c004d0f1461011f5780635fb42e1b14610134578063715018a614610168575b600080fd5b3480156100ad57600080fd5b506100d57f000000000000000000000000000000000000000000000000000000000000000081565b6040516001600160a01b0390911681526020015b60405180910390f35b3480156100fe57600080fd5b5061011261010d366004610649565b61024a565b6040516100e99190610664565b61013261012d3660046106bd565b6102b6565b005b34801561014057600080fd5b506100d57f000000000000000000000000000000000000000000000000000000000000000081565b34801561017457600080fd5b50610132610412565b34801561018957600080fd5b5061019360035481565b6040519081526020016100e9565b3480156101ad57600080fd5b506000546001600160a01b03166100d5565b3480156101cb57600080fd5b506100d5610426565b3480156101e057600080fd5b506100d56101ef36600461078a565b6001602052600090815260409020546001600160a01b031681565b34801561021657600080fd5b506101936102253660046107a3565b610465565b34801561023657600080fd5b50610132610245366004610649565b610496565b6001600160a01b0381166000908152600260209081526040918290208054835181840281018401909452808452606093928301828280156102aa57602002820191906000526020600020905b815481526020019060010190808311610296575b50505050509050919050565b6003546000906102f0906001600160a01b037f000000000000000000000000000000000000000000000000000000000000000016906104d9565b60405163109c284760e21b81529091506001600160a01b03821690634270a11c90610345908590889088907f0000000000000000000000000000000000000000000000000000000000000000906004016107cd565b600060405180830381600087803b15801561035f57600080fd5b505af1158015610373573d6000803e3d6000fd5b505060038054600090815260016020818152604080842080546001600160a01b0319166001600160a01b038a1617905533845260028252832084548154938401825590845290832090910155815493509091506103cf8361083c565b90915550506003546040516001600160a01b03831691907fa28026984f0a3f5f81e8232228f0b9d3f1c5f756d4c3618b5e82d4b6a15ed10f90600090a350505050565b61041a61054d565b610424600061057a565b565b600354600090610460906001600160a01b037f000000000000000000000000000000000000000000000000000000000000000016906105ca565b905090565b6002602052816000526040600020818154811061048157600080fd5b90600052602060002001600091509150505481565b61049e61054d565b6001600160a01b0381166104cd57604051631e4fbdf760e01b8152600060048201526024015b60405180910390fd5b6104d68161057a565b50565b6000763d602d80600a3d3981f3363d3d373d3d3d363d730000008360601b60e81c176000526e5af43d82803e903d91602b57fd5bf38360781b1760205281603760096000f590506001600160a01b038116610547576040516330be1a3d60e21b815260040160405180910390fd5b92915050565b6000546001600160a01b031633146104245760405163118cdaa760e01b81523360048201526024016104c4565b600080546001600160a01b038381166001600160a01b0319831681178455604051919092169283917f8be0079c531659141344cd1fd0a4f28419497f9722a3daafe3b4186f6b6457e09190a35050565b6040513060388201526f5af43d82803e903d91602b57fd5bf3ff602482015260148101839052733d602d80600a3d3981f3363d3d373d3d3d363d738152605881018290526037600c820120607882015260556043909101206000905b9392505050565b80356001600160a01b038116811461064457600080fd5b919050565b60006020828403121561065b57600080fd5b6106268261062d565b602080825282518282018190526000918401906040840190835b8181101561069c57835183526020938401939092019160010161067e565b509095945050505050565b634e487b7160e01b600052604160045260246000fd5b6000806000606084860312156106d257600080fd5b83359250602084013567ffffffffffffffff8111156106f057600080fd5b8401601f8101861361070157600080fd5b803567ffffffffffffffff81111561071b5761071b6106a7565b604051601f8201601f19908116603f0116810167ffffffffffffffff8111828210171561074a5761074a6106a7565b60405281815282820160200188101561076257600080fd5b8160208401602083013760009181016020019190915293969395505050506040919091013590565b60006020828403121561079c57600080fd5b5035919050565b600080604083850312156107b657600080fd5b6107bf8361062d565b946020939093013593505050565b848152836020820152608060408201526000835180608084015260005b8181101561080757602081870181015160a08684010152016107ea565b50600083820160a0908101919091526001600160a01b03949094166060840152601f01601f1916909101909101949350505050565b60006001820161085c57634e487b7160e01b600052601160045260246000fd5b506001019056fea2646970667358221220f3c22735f4f0982130e3978c1e7ac31a38a533f446b7b01b83452639e84c9eb764736f6c634300081a0033","linkReferences":{}},"methodIdentifiers":{"REVIEWER_SBT_ADDRESS()":"5fb42e1b","addressToReviewPools(address,uint256)":"e0461176","createReviewPool(bytes32,string,uint256)":"2c004d0f","getReviewPoolsByAddress(address)":"11dc00dc","owner()":"8da5cb5b","predictNextDeterministicAddress()":"a9f92716","renounceOwnership()":"715018a6","reviewPoolCount()":"7206e637","reviewPoolImplementation()":"0704257d","reviewPoolToAddress(uint256)":"b865b155","transferOwnership(address)":"f2fde38b"},"id":36}