{"abi":[{"type":"constructor","inputs":[],"stateMutability":"nonpayable"},{"type":"function","name":"addTagType","inputs":[{"name":"tagType","type":"string","internalType":"string"}],"outputs":[],"stateMutability":"nonpayable"},{"type":"function","name":"approve","inputs":[{"name":"to","type":"address","internalType":"address"},{"name":"tokenId","type":"uint256","internalType":"uint256"}],"outputs":[],"stateMutability":"nonpayable"},{"type":"function","name":"balanceOf","inputs":[{"name":"owner","type":"address","internalType":"address"}],"outputs":[{"name":"","type":"uint256","internalType":"uint256"}],"stateMutability":"view"},{"type":"function","name":"burn","inputs":[{"name":"_tokenId","type":"uint256","internalType":"uint256"}],"outputs":[],"stateMutability":"nonpayable"},{"type":"function","name":"burnAuth","inputs":[{"name":"_tokenId","type":"uint256","internalType":"uint256"}],"outputs":[{"name":"","type":"uint8","internalType":"enum IERC5484.BurnAuth"}],"stateMutability":"view"},{"type":"function","name":"deleteTagType","inputs":[{"name":"index","type":"uint256","internalType":"uint256"}],"outputs":[],"stateMutability":"nonpayable"},{"type":"function","name":"getAllTagTypes","inputs":[],"outputs":[{"name":"","type":"string[]","internalType":"string[]"}],"stateMutability":"view"},{"type":"function","name":"getApproved","inputs":[{"name":"tokenId","type":"uint256","internalType":"uint256"}],"outputs":[{"name":"","type":"address","internalType":"address"}],"stateMutability":"view"},{"type":"function","name":"getTagTypeFromHash","inputs":[{"name":"tagTypeHash","type":"bytes32","internalType":"bytes32"}],"outputs":[{"name":"","type":"string","internalType":"string"}],"stateMutability":"view"},{"type":"function","name":"getTagTypeHash","inputs":[{"name":"_tokenId","type":"uint256","internalType":"uint256"}],"outputs":[{"name":"","type":"bytes32","internalType":"bytes32"}],"stateMutability":"view"},{"type":"function","name":"getTagsByUser","inputs":[{"name":"user","type":"address","internalType":"address"}],"outputs":[{"name":"","type":"string[]","internalType":"string[]"}],"stateMutability":"view"},{"type":"function","name":"isApprovedForAll","inputs":[{"name":"owner","type":"address","internalType":"address"},{"name":"operator","type":"address","internalType":"address"}],"outputs":[{"name":"","type":"bool","internalType":"bool"}],"stateMutability":"view"},{"type":"function","name":"mint","inputs":[{"name":"to","type":"address","internalType":"address"},{"name":"tagType","type":"string","internalType":"string"}],"outputs":[],"stateMutability":"nonpayable"},{"type":"function","name":"name","inputs":[],"outputs":[{"name":"","type":"string","internalType":"string"}],"stateMutability":"view"},{"type":"function","name":"owner","inputs":[],"outputs":[{"name":"","type":"address","internalType":"address"}],"stateMutability":"view"},{"type":"function","name":"ownerOf","inputs":[{"name":"tokenId","type":"uint256","internalType":"uint256"}],"outputs":[{"name":"","type":"address","internalType":"address"}],"stateMutability":"view"},{"type":"function","name":"renounceOwnership","inputs":[],"outputs":[],"stateMutability":"nonpayable"},{"type":"function","name":"safeTransferFrom","inputs":[{"name":"from","type":"address","internalType":"address"},{"name":"to","type":"address","internalType":"address"},{"name":"tokenId","type":"uint256","internalType":"uint256"}],"outputs":[],"stateMutability":"nonpayable"},{"type":"function","name":"safeTransferFrom","inputs":[{"name":"from","type":"address","internalType":"address"},{"name":"to","type":"address","internalType":"address"},{"name":"tokenId","type":"uint256","internalType":"uint256"},{"name":"data","type":"bytes","internalType":"bytes"}],"outputs":[],"stateMutability":"nonpayable"},{"type":"function","name":"setApprovalForAll","inputs":[{"name":"operator","type":"address","internalType":"address"},{"name":"approved","type":"bool","internalType":"bool"}],"outputs":[],"stateMutability":"nonpayable"},{"type":"function","name":"setBurnAuthorization","inputs":[{"name":"_burnAuthorization","type":"uint8","internalType":"enum IERC5484.BurnAuth"}],"outputs":[],"stateMutability":"nonpayable"},{"type":"function","name":"supportsInterface","inputs":[{"name":"interfaceId","type":"bytes4","internalType":"bytes4"}],"outputs":[{"name":"","type":"bool","internalType":"bool"}],"stateMutability":"view"},{"type":"function","name":"symbol","inputs":[],"outputs":[{"name":"","type":"string","internalType":"string"}],"stateMutability":"view"},{"type":"function","name":"tagTypes","inputs":[{"name":"","type":"uint256","internalType":"uint256"}],"outputs":[{"name":"","type":"string","internalType":"string"}],"stateMutability":"view"},{"type":"function","name":"tagTypesHash","inputs":[{"name":"","type":"string","internalType":"string"}],"outputs":[{"name":"","type":"bytes32","internalType":"bytes32"}],"stateMutability":"view"},{"type":"function","name":"tokenIdToTagTypeHash","inputs":[{"name":"","type":"uint256","internalType":"uint256"}],"outputs":[{"name":"","type":"bytes32","internalType":"bytes32"}],"stateMutability":"view"},{"type":"function","name":"tokenURI","inputs":[{"name":"tokenId","type":"uint256","internalType":"uint256"}],"outputs":[{"name":"","type":"string","internalType":"string"}],"stateMutability":"view"},{"type":"function","name":"transferFrom","inputs":[{"name":"","type":"address","internalType":"address"},{"name":"","type":"address","internalType":"address"},{"name":"","type":"uint256","internalType":"uint256"}],"outputs":[],"stateMutability":"nonpayable"},{"type":"function","name":"transferOwnership","inputs":[{"name":"newOwner","type":"address","internalType":"address"}],"outputs":[],"stateMutability":"nonpayable"},{"type":"function","name":"userToTokenIds","inputs":[{"name":"","type":"address","internalType":"address"},{"name":"","type":"uint256","internalType":"uint256"}],"outputs":[{"name":"","type":"uint256","internalType":"uint256"}],"stateMutability":"view"},{"type":"event","name":"Approval","inputs":[{"name":"owner","type":"address","indexed":true,"internalType":"address"},{"name":"approved","type":"address","indexed":true,"internalType":"address"},{"name":"tokenId","type":"uint256","indexed":true,"internalType":"uint256"}],"anonymous":false},{"type":"event","name":"ApprovalForAll","inputs":[{"name":"owner","type":"address","indexed":true,"internalType":"address"},{"name":"operator","type":"address","indexed":true,"internalType":"address"},{"name":"approved","type":"bool","indexed":false,"internalType":"bool"}],"anonymous":false},{"type":"event","name":"Burned","inputs":[{"name":"tokenId","type":"uint256","indexed":false,"internalType":"uint256"}],"anonymous":false},{"type":"event","name":"Issued","inputs":[{"name":"from","type":"address","indexed":true,"internalType":"address"},{"name":"to","type":"address","indexed":true,"internalType":"address"},{"name":"tokenId","type":"uint256","indexed":true,"internalType":"uint256"},{"name":"burnAuth","type":"uint8","indexed":false,"internalType":"enum IERC5484.BurnAuth"}],"anonymous":false},{"type":"event","name":"OwnershipTransferred","inputs":[{"name":"previousOwner","type":"address","indexed":true,"internalType":"address"},{"name":"newOwner","type":"address","indexed":true,"internalType":"address"}],"anonymous":false},{"type":"event","name":"TagTypeAdded","inputs":[{"name":"tagType","type":"string","indexed":false,"internalType":"string"}],"anonymous":false},{"type":"event","name":"TagTypeDeleted","inputs":[{"name":"index","type":"uint256","indexed":false,"internalType":"uint256"}],"anonymous":false},{"type":"event","name":"Transfer","inputs":[{"name":"from","type":"address","indexed":true,"internalType":"address"},{"name":"to","type":"address","indexed":true,"internalType":"address"},{"name":"tokenId","type":"uint256","indexed":true,"internalType":"uint256"}],"anonymous":false},{"type":"error","name":"ERC721IncorrectOwner","inputs":[{"name":"sender","type":"address","internalType":"address"},{"name":"tokenId","type":"uint256","internalType":"uint256"},{"name":"owner","type":"address","internalType":"address"}]},{"type":"error","name":"ERC721InsufficientApproval","inputs":[{"name":"operator","type":"address","internalType":"address"},{"name":"tokenId","type":"uint256","internalType":"uint256"}]},{"type":"error","name":"ERC721InvalidApprover","inputs":[{"name":"approver","type":"address","internalType":"address"}]},{"type":"error","name":"ERC721InvalidOperator","inputs":[{"name":"operator","type":"address","internalType":"address"}]},{"type":"error","name":"ERC721InvalidOwner","inputs":[{"name":"owner","type":"address","internalType":"address"}]},{"type":"error","name":"ERC721InvalidReceiver","inputs":[{"name":"receiver","type":"address","internalType":"address"}]},{"type":"error","name":"ERC721InvalidSender","inputs":[{"name":"sender","type":"address","internalType":"address"}]},{"type":"error","name":"ERC721NonexistentToken","inputs":[{"name":"tokenId","type":"uint256","internalType":"uint256"}]},{"type":"error","name":"OwnableInvalidOwner","inputs":[{"name":"owner","type":"address","internalType":"address"}]},{"type":"error","name":"OwnableUnauthorizedAccount","inputs":[{"name":"account","type":"address","internalType":"address"}]},{"type":"error","name":"ReviewerSBT__NonExistentTagType","inputs":[]},{"type":"error","name":"ReviewerSBT__NonExistentToken","inputs":[]},{"type":"error","name":"ReviewerSBT__NonTransferableToken","inputs":[]}],"bytecode":{"object":"0x608060405234801561001057600080fd5b50336040518060400160405280600b81526020016a14995d9a595dd95c94d09560aa1b815250604051806040016040528060048152602001631494d09560e21b815250816000908161006291906101ad565b50600161006f82826101ad565b5050506001600160a01b0381166100a057604051631e4fbdf760e01b81526000600482015260240160405180910390fd5b6100a9816100bc565b50600c805460ff1916600217905561026b565b600680546001600160a01b038381166001600160a01b0319831681179093556040519116919082907f8be0079c531659141344cd1fd0a4f28419497f9722a3daafe3b4186f6b6457e090600090a35050565b634e487b7160e01b600052604160045260246000fd5b600181811c9082168061013857607f821691505b60208210810361015857634e487b7160e01b600052602260045260246000fd5b50919050565b601f8211156101a857806000526020600020601f840160051c810160208510156101855750805b601f840160051c820191505b818110156101a55760008155600101610191565b50505b505050565b81516001600160401b038111156101c6576101c661010e565b6101da816101d48454610124565b8461015e565b6020601f82116001811461020e57600083156101f65750848201515b600019600385901b1c1916600184901b1784556101a5565b600084815260208120601f198516915b8281101561023e578785015182556020948501946001909201910161021e565b508482101561025c5786840151600019600387901b60f8161c191681555b50505050600190811b01905550565b611fe28061027a6000396000f3fe608060405234801561001057600080fd5b50600436106101da5760003560e01c8063715018a611610104578063a22cb465116100a2578063d0def52111610071578063d0def52114610435578063e985e9c514610448578063efdeceb41461045b578063f2fde38b1461046e57600080fd5b8063a22cb465146103e9578063b2151d14146103fc578063b88d4fde1461040f578063c87b56dd1461042257600080fd5b8063832c0b15116100de578063832c0b151461039d5780638da5cb5b146103bd57806395d89b41146103ce5780639e0c321c146103d657600080fd5b8063715018a61461035757806371b4286b1461035f57806378bef3a71461038a57600080fd5b806323b872dd1161017c5780635c5dea301161014b5780635c5dea301461030b5780636063f8891461031e5780636352211e1461033157806370a082311461034457600080fd5b806323b872dd146102a457806342842e0e146102b757806342966c68146102ca57806359f99a4c146102dd57600080fd5b8063081812fc116101b8578063081812fc1461023c578063095ea7b31461026757806316a9648c1461027c57806323497d511461028f57600080fd5b806301ffc9a7146101df5780630489b56f1461020757806306fdde0314610227575b600080fd5b6101f26101ed3660046117f3565b610481565b60405190151581526020015b60405180910390f35b61021a610215366004611810565b6104ac565b6040516101fe919061183f565b61022f6104ec565b6040516101fe91906118b7565b61024f61024a366004611810565b61057e565b6040516001600160a01b0390911681526020016101fe565b61027a6102753660046118e6565b6105a7565b005b61027a61028a3660046119c0565b6105b6565b610297610601565b6040516101fe91906119f5565b61027a6102b2366004611a5a565b6106da565b61027a6102c5366004611a5a565b6106f3565b61027a6102d8366004611810565b610713565b6102fd6102eb366004611810565b6000908152600a602052604090205490565b6040519081526020016101fe565b61022f610319366004611810565b6108ad565b61022f61032c366004611810565b610959565b61024f61033f366004611810565b610a79565b6102fd610352366004611a97565b610a84565b61027a610ad1565b6102fd61036d3660046119c0565b805160208183018101805160098252928201919093012091525481565b610297610398366004611a97565b610ae5565b6102fd6103ab366004611810565b600a6020526000908152604090205481565b6006546001600160a01b031661024f565b61022f610c0b565b61027a6103e4366004611810565b610c1a565b61027a6103f7366004611ab2565b610c5b565b6102fd61040a3660046118e6565b610c66565b61027a61041d366004611aee565b610c97565b61022f610430366004611810565b610cb4565b61027a610443366004611b6a565b610d29565b6101f2610456366004611bb8565b610df7565b61027a610469366004611beb565b610e25565b61027a61047c366004611a97565b610e54565b60006001600160e01b03198216630489b56f60e01b14806104a657506104a682610e92565b92915050565b6000818152600260205260408120546001600160a01b03166104e15760405163305f81b160e01b815260040160405180910390fd5b5050600c5460ff1690565b6060600080546104fb90611c0c565b80601f016020809104026020016040519081016040528092919081815260200182805461052790611c0c565b80156105745780601f1061054957610100808354040283529160200191610574565b820191906000526020600020905b81548152906001019060200180831161055757829003601f168201915b5050505050905090565b600061058982610ee2565b506000828152600460205260409020546001600160a01b03166104a6565b6105b2828233610f1b565b5050565b6105be610f28565b6105c781610f55565b7f4bda1bd7a4c7664f92f1c455ed6d800af93dee84d6cba49a41cc53829f8d69c5816040516105f691906118b7565b60405180910390a150565b60606008805480602002602001604051908101604052809291908181526020016000905b828210156106d157838290600052602060002001805461064490611c0c565b80601f016020809104026020016040519081016040528092919081815260200182805461067090611c0c565b80156106bd5780601f10610692576101008083540402835291602001916106bd565b820191906000526020600020905b8154815290600101906020018083116106a057829003601f168201915b505050505081526020019060010190610625565b50505050905090565b604051630634778160e11b815260040160405180910390fd5b61070e83838360405180602001604052806000815250610c97565b505050565b806003600c5460ff16600381111561072d5761072d611829565b0361074b57604051630634778160e11b815260040160405180910390fd5b6001600c5460ff16600381111561076457610764611829565b14801561078b575061077581610a79565b6001600160a01b0316336001600160a01b031614155b156107a957604051630634778160e11b815260040160405180910390fd5b6000600c5460ff1660038111156107c2576107c2611829565b1480156107da57506006546001600160a01b03163314155b156107f857604051630634778160e11b815260040160405180910390fd5b6002600c5460ff16600381111561081157610811611829565b14801561082957506006546001600160a01b03163314155b801561084f575061083981610a79565b6001600160a01b0316336001600160a01b031614155b1561086d57604051630634778160e11b815260040160405180910390fd5b61087682610fdc565b6040518281527fd83c63197e8e676d80ab0122beba9a9d20f3828839e9a1d6fe81d242e9cd7e6e9060200160405180910390a15050565b600881815481106108bd57600080fd5b9060005260206000200160009150905080546108d890611c0c565b80601f016020809104026020016040519081016040528092919081815260200182805461090490611c0c565b80156109515780601f1061092657610100808354040283529160200191610951565b820191906000526020600020905b81548152906001019060200180831161093457829003601f168201915b505050505081565b606060005b600854811015610a5f578260096008838154811061097e5761097e611c46565b906000526020600020016040516109959190611c5c565b90815260200160405180910390205403610a5757600881815481106109bc576109bc611c46565b9060005260206000200180546109d190611c0c565b80601f01602080910402602001604051908101604052809291908181526020018280546109fd90611c0c565b8015610a4a5780601f10610a1f57610100808354040283529160200191610a4a565b820191906000526020600020905b815481529060010190602001808311610a2d57829003601f168201915b5050505050915050919050565b60010161095e565b50604051632934656f60e01b815260040160405180910390fd5b60006104a682610ee2565b60006001600160a01b038216610ab5576040516322718ad960e21b8152600060048201526024015b60405180910390fd5b506001600160a01b031660009081526003602052604090205490565b610ad9610f28565b610ae36000611017565b565b6001600160a01b0381166000908152600b60209081526040808320805482518185028101850190935280835260609493830182828015610b4457602002820191906000526020600020905b815481526020019060010190808311610b30575b505050505090506000815167ffffffffffffffff811115610b6757610b67611910565b604051908082528060200260200182016040528015610b9a57816020015b6060815260200190600190039081610b855790505b50905060005b8251811015610c0357610bde600a6000858481518110610bc257610bc2611c46565b6020026020010151815260200190815260200160002054610959565b828281518110610bf057610bf0611c46565b6020908102919091010152600101610ba0565b509392505050565b6060600180546104fb90611c0c565b610c22610f28565b610c2b81611069565b6040518181527f2c9ddea7f4345968678fef7816d73b19b2062c9718897c5272284fd11801ff0d906020016105f6565b6105b233838361112e565b600b6020528160005260406000208181548110610c8257600080fd5b90600052602060002001600091509150505481565b610ca28484846106da565b610cae848484846111cd565b50505050565b6060610cbf82610ee2565b506000610cd760408051602081019091526000815290565b90506000815111610cf75760405180602001604052806000815250610d22565b80610d01846112f6565b604051602001610d12929190611cd1565b6040516020818303038152906040525b9392505050565b600981604051610d399190611d00565b908152604080516020928190038301902054600780546000908152600a8552838120929092556001600160a01b0386168252600b8452918120825481546001810183559183529382200192909255805491610d9383611d32565b9190505550610da482600754611389565b600754600c546040516001600160a01b0385169133917f135ffb3383e06280e062ac5095bbf8faa98517161e596a2536bd98a9a8b64a8891610deb9160ff9091169061183f565b60405180910390a45050565b6001600160a01b03918216600090815260056020908152604080832093909416825291909152205460ff1690565b610e2d610f28565b600c805482919060ff19166001836003811115610e4c57610e4c611829565b021790555050565b610e5c610f28565b6001600160a01b038116610e8657604051631e4fbdf760e01b815260006004820152602401610aac565b610e8f81611017565b50565b60006001600160e01b031982166380ac58cd60e01b1480610ec357506001600160e01b03198216635b5e139f60e01b145b806104a657506301ffc9a760e01b6001600160e01b03198316146104a6565b6000818152600260205260408120546001600160a01b0316806104a657604051637e27328960e01b815260048101849052602401610aac565b61070e83838360016113ee565b6006546001600160a01b03163314610ae35760405163118cdaa760e01b8152336004820152602401610aac565b600880546001810182556000919091527ff3f7a9fe364faab93b216da50a3214154f22a0a2b415b23a84c8169e8b636ee301610f918282611d92565b5080604051602001610fa39190611d00565b60405160208183030381529060405280519060200120600982604051610fc99190611d00565b9081526040519081900360200190205550565b6000610feb60008360006114f4565b90506001600160a01b0381166105b257604051637e27328960e01b815260048101839052602401610aac565b600680546001600160a01b038381166001600160a01b0319831681179093556040519116919082907f8be0079c531659141344cd1fd0a4f28419497f9722a3daafe3b4186f6b6457e090600090a35050565b60096008828154811061107e5761107e611c46565b906000526020600020016040516110959190611c5c565b90815260405190819003602001902060009055600880546110b890600190611e54565b815481106110c8576110c8611c46565b90600052602060002001600882815481106110e5576110e5611c46565b9060005260206000200190816110fb9190611e67565b50600880548061110d5761110d611f3c565b600190038181906000526020600020016000611129919061178f565b905550565b6001600160a01b03821661116057604051630b61174360e31b81526001600160a01b0383166004820152602401610aac565b6001600160a01b03838116600081815260056020908152604080832094871680845294825291829020805460ff191686151590811790915591519182527f17307eab39ab6107e8899845ad3d59bd9653f200f220920489ca2b5937696c31910160405180910390a3505050565b6001600160a01b0383163b15610cae57604051630a85bd0160e11b81526001600160a01b0384169063150b7a029061120f903390889087908790600401611f52565b6020604051808303816000875af192505050801561124a575060408051601f3d908101601f1916820190925261124791810190611f8f565b60015b6112b3573d808015611278576040519150601f19603f3d011682016040523d82523d6000602084013e61127d565b606091505b5080516000036112ab57604051633250574960e11b81526001600160a01b0385166004820152602401610aac565b805181602001fd5b6001600160e01b03198116630a85bd0160e11b146112ef57604051633250574960e11b81526001600160a01b0385166004820152602401610aac565b5050505050565b60606000611303836115ed565b600101905060008167ffffffffffffffff81111561132357611323611910565b6040519080825280601f01601f19166020018201604052801561134d576020820181803683370190505b5090508181016020015b600019016f181899199a1a9b1b9c1cb0b131b232b360811b600a86061a8153600a850494508461135757509392505050565b6001600160a01b0382166113b357604051633250574960e11b815260006004820152602401610aac565b60006113c1838360006114f4565b90506001600160a01b0381161561070e576040516339e3563760e11b815260006004820152602401610aac565b808061140257506001600160a01b03821615155b156114c457600061141284610ee2565b90506001600160a01b0383161580159061143e5750826001600160a01b0316816001600160a01b031614155b8015611451575061144f8184610df7565b155b1561147a5760405163a9fbf51f60e01b81526001600160a01b0384166004820152602401610aac565b81156114c25783856001600160a01b0316826001600160a01b03167f8c5be1e5ebec7d5bd14f71427d1e84f3dd0314c0f7b2291e5b200ac8c7c3b92560405160405180910390a45b505b5050600090815260046020526040902080546001600160a01b0319166001600160a01b0392909216919091179055565b6000828152600260205260408120546001600160a01b0390811690831615611521576115218184866116c5565b6001600160a01b0381161561155f5761153e6000856000806113ee565b6001600160a01b038116600090815260036020526040902080546000190190555b6001600160a01b0385161561158e576001600160a01b0385166000908152600360205260409020805460010190555b60008481526002602052604080822080546001600160a01b0319166001600160a01b0389811691821790925591518793918516917fddf252ad1be2c89b69c2b068fc378daa952ba7f163c4a11628f55a4df523b3ef91a4949350505050565b60008072184f03e93ff9f4daa797ed6e38ed64bf6a1f0160401b831061162c5772184f03e93ff9f4daa797ed6e38ed64bf6a1f0160401b830492506040015b6d04ee2d6d415b85acef81000000008310611658576d04ee2d6d415b85acef8100000000830492506020015b662386f26fc10000831061167657662386f26fc10000830492506010015b6305f5e100831061168e576305f5e100830492506008015b61271083106116a257612710830492506004015b606483106116b4576064830492506002015b600a83106104a65760010192915050565b6116d0838383611729565b61070e576001600160a01b0383166116fe57604051637e27328960e01b815260048101829052602401610aac565b60405163177e802f60e01b81526001600160a01b038316600482015260248101829052604401610aac565b60006001600160a01b038316158015906117875750826001600160a01b0316846001600160a01b0316148061176357506117638484610df7565b8061178757506000828152600460205260409020546001600160a01b038481169116145b949350505050565b50805461179b90611c0c565b6000825580601f106117ab575050565b601f016020900490600052602060002090810190610e8f91905b808211156117d957600081556001016117c5565b5090565b6001600160e01b031981168114610e8f57600080fd5b60006020828403121561180557600080fd5b8135610d22816117dd565b60006020828403121561182257600080fd5b5035919050565b634e487b7160e01b600052602160045260246000fd5b602081016004831061186157634e487b7160e01b600052602160045260246000fd5b91905290565b60005b8381101561188257818101518382015260200161186a565b50506000910152565b600081518084526118a3816020860160208601611867565b601f01601f19169290920160200192915050565b602081526000610d22602083018461188b565b80356001600160a01b03811681146118e157600080fd5b919050565b600080604083850312156118f957600080fd5b611902836118ca565b946020939093013593505050565b634e487b7160e01b600052604160045260246000fd5b60008067ffffffffffffffff84111561194157611941611910565b50604051601f19601f85018116603f0116810181811067ffffffffffffffff8211171561197057611970611910565b60405283815290508082840185101561198857600080fd5b83836020830137600060208583010152509392505050565b600082601f8301126119b157600080fd5b610d2283833560208501611926565b6000602082840312156119d257600080fd5b813567ffffffffffffffff8111156119e957600080fd5b611787848285016119a0565b6000602082016020835280845180835260408501915060408160051b86010192506020860160005b82811015611a4e57603f19878603018452611a3985835161188b565b94506020938401939190910190600101611a1d565b50929695505050505050565b600080600060608486031215611a6f57600080fd5b611a78846118ca565b9250611a86602085016118ca565b929592945050506040919091013590565b600060208284031215611aa957600080fd5b610d22826118ca565b60008060408385031215611ac557600080fd5b611ace836118ca565b915060208301358015158114611ae357600080fd5b809150509250929050565b60008060008060808587031215611b0457600080fd5b611b0d856118ca565b9350611b1b602086016118ca565b925060408501359150606085013567ffffffffffffffff811115611b3e57600080fd5b8501601f81018713611b4f57600080fd5b611b5e87823560208401611926565b91505092959194509250565b60008060408385031215611b7d57600080fd5b611b86836118ca565b9150602083013567ffffffffffffffff811115611ba257600080fd5b611bae858286016119a0565b9150509250929050565b60008060408385031215611bcb57600080fd5b611bd4836118ca565b9150611be2602084016118ca565b90509250929050565b600060208284031215611bfd57600080fd5b813560048110610d2257600080fd5b600181811c90821680611c2057607f821691505b602082108103611c4057634e487b7160e01b600052602260045260246000fd5b50919050565b634e487b7160e01b600052603260045260246000fd5b6000808354611c6a81611c0c565b600182168015611c815760018114611c9657611cc6565b60ff1983168652811515820286019350611cc6565b86600052602060002060005b83811015611cbe57815488820152600190910190602001611ca2565b505081860193505b509195945050505050565b60008351611ce3818460208801611867565b835190830190611cf7818360208801611867565b01949350505050565b60008251611d12818460208701611867565b9190910192915050565b634e487b7160e01b600052601160045260246000fd5b600060018201611d4457611d44611d1c565b5060010190565b601f82111561070e57806000526020600020601f840160051c81016020851015611d725750805b601f840160051c820191505b818110156112ef5760008155600101611d7e565b815167ffffffffffffffff811115611dac57611dac611910565b611dc081611dba8454611c0c565b84611d4b565b6020601f821160018114611df75760008315611ddc5750848201515b600184901b600019600386901b1c198216175b8555506112ef565b600084815260208120601f198516915b82811015611e275787850151825560209485019460019092019101611e07565b5084821015611e455786840151600019600387901b60f8161c191681555b50505050600190811b01905550565b818103818111156104a6576104a6611d1c565b818103611e72575050565b611e7c8254611c0c565b67ffffffffffffffff811115611e9457611e94611910565b611ea281611dba8454611c0c565b6000601f821160018114611ed45760008315611ddc575081850154600184901b600019600386901b1c19821617611def565b600085815260209020601f19841690600086815260209020845b83811015611f0e5782860154825560019586019590910190602001611eee565b5085831015611f2c5781850154600019600388901b60f8161c191681555b5050505050600190811b01905550565b634e487b7160e01b600052603160045260246000fd5b6001600160a01b0385811682528416602082015260408101839052608060608201819052600090611f859083018461188b565b9695505050505050565b600060208284031215611fa157600080fd5b8151610d22816117dd56fea2646970667358221220c52a26e3ea29cd87fb0a99b5e214c023a383dab1ef714821fcf3ca3aadd7bc7364736f6c634300081a0033","linkReferences":{}},"methodIdentifiers":{"addTagType(string)":"16a9648c","approve(address,uint256)":"095ea7b3","balanceOf(address)":"70a08231","burn(uint256)":"42966c68","burnAuth(uint256)":"0489b56f","deleteTagType(uint256)":"9e0c321c","getAllTagTypes()":"23497d51","getApproved(uint256)":"081812fc","getTagTypeFromHash(bytes32)":"6063f889","getTagTypeHash(uint256)":"59f99a4c","getTagsByUser(address)":"78bef3a7","isApprovedForAll(address,address)":"e985e9c5","mint(address,string)":"d0def521","name()":"06fdde03","owner()":"8da5cb5b","ownerOf(uint256)":"6352211e","renounceOwnership()":"715018a6","safeTransferFrom(address,address,uint256)":"42842e0e","safeTransferFrom(address,address,uint256,bytes)":"b88d4fde","setApprovalForAll(address,bool)":"a22cb465","setBurnAuthorization(uint8)":"efdeceb4","supportsInterface(bytes4)":"01ffc9a7","symbol()":"95d89b41","tagTypes(uint256)":"5c5dea30","tagTypesHash(string)":"71b4286b","tokenIdToTagTypeHash(uint256)":"832c0b15","tokenURI(uint256)":"c87b56dd","transferFrom(address,address,uint256)":"23b872dd","transferOwnership(address)":"f2fde38b","userToTokenIds(address,uint256)":"b2151d14"},"id":37}